:400000000080002011000000F5000000F500000008B5044B1A6803F53F5302331A6000F06BF800BFFA46004010B5054C237833B9044B13B10448AFF300800123237010BD2A
:400040002881FF1F00000000D40D0000084B10B51BB108480849AFF300800848036803B910BD074B002BFBD0BDE81040184700BF00000000D40D00002C81FF1F0881FF1F3F
:400080000000000038B55A2000F03EFE5B2000F03BFE62B600F0CEFC00F032FE00F0EAF90A2000F051FE00250DB155B9FCE7002404E0E0B200F010F801340425012CF8DD15
:4000C000F2E7002000F034FE012000F031FE002000F02EFEE8E700BF10B5044600F0BEFC002000F0BFFC204600F0C8FC00F0D4FC00B210BDFEE700BF08B5104E104D16E0EC
:4001000029686B68AC68002204E051F8040B43F8040B0432A242F8D1E868002203E0002143F8041B04328242F9D11035013E002EE6D100F015FEFFF7A5FFFEE7010000003C
:400140002C0E000008B5134A134B1A60134A136843F40073136000230AE0032B03D8104A52F8231000E00F490F4A42F8231001332F2BF2D90D4B1A780D4B1A700A4A0D4BA2
:400180001A6000F0E3F800F0A3F900220A4B1A6008BD00BF0004FA050CED00E014ED00E000000000F50000000080FF1FBC7600400481FF1F08ED00E00081FF1FFEE700BF7C
:4001C000F0B40022174611E050F82760F3B226F0FF0608E001EB420511F812406D78A5550132013BDBB2002BF4D101371C2FEBD9F0BC704770B4174B1B78DBB216480278F3
:40020000D2B2164C2178C9B203F00706144D2E701B0901352B7042F00303037041F003032370C0250F4B1D7040230F4E33700236337006F2F51635700C4D2B702026033537
:400240002E702D352B70217002704422084B1A7070BC7047CF010049F8460040F94600406E5800400D51004009590040285B00407658004008B50A46002100F0A2FD08BD0B
:4002800038B50C22254B1A801823254A1370192502321580023213700222224B1A7008224FF040231A70032103F5007319701E4B1B78DBB21D490B701D4B1A8041F2512293
:4002C000023B1A8000240CE01A4B1B7803F0010343EA440404F003044FF4F07000F0E8F8013D0DB1032CEFD115B90320FFF766FF114B4FF480721A8007221A7000220F49B6
:400300000A704820023108701A700222033B1A700B4A137843F00303137038BD80400040824000400043004008010049A146004022420040254200400440004006400040D6
:40034000A243004008B500F031FD08BD38B572B62B4A137843F00403137000240CE0294963001A1952000A4423445B00C8589188FFF780FF0134E4B2072CF0D94FF09040E8
:400380002149FFF71DFF21480421FFF773FF204820490422FFF7D6FF1F4A137843F0020313701032137843F0020313701B4C237843F040032370A2F58632513A137843F02F
:4003C00010031370164817490822FFF7BBFF164A137843F008031370144D61232B70FFF74FFF81232B700122114B1A7000F0B2F9FFF700FF0F4821460E22FFF7A3FF38BD0C
:40040000E8460040D80D00007400004800760040087600403005004803500140A04300400251004028050048224300400048004004000840B04300400622044B1A704722E7
:4004400010331A70002250331A7070472364004010B500F035F80446054A137843F01003137000F015F8204600F02EF810BD00BF9364004008B5054B1B7823B9FFF7DCFFAA
:400480000122024B1A70FFF7E3FF08BD4481FF1F054A137843F0020313701032137843F002031370704700BFA2430040000000000230800803D000BF01380046FCD17047BB
:4004C000EFF3108072B6704780F31088704700BF0B4A7F2313708021517007E0DA0002F1804202F5F042013BDBB21370002BF5D1DB0003F1804303F5F04300221A70704752
:400500000C81FF1F172815D831B103010A495A5C42F020025A5405E0030107495A5C02F0DF025A540001044A835C43F00103835400207047012070471070004017280CD8B5
:400540000001074BC1180A7942F004020A71C25C42F00102C254002070470120704700BF1070004017280BD80001064A835C03F0F10301F0070143EA410181540020704735
:40058000012070471070004041F6FF73994201D14FF4005141F6FF739A4201D14FF40052172808D8C00000F1804000F5EC408180C280002070470120704700BF172805D84F
:4005C000034B03EB0010417200207047012070471070004017281BD810B4C00000F1804404F5EC44D201D2B201F07F01114321709DF804201201D2B203F00F0313436370CE
:400600009DF8083003F00F03A3700020E07001E0012070475DF8044B704700BF10B5FFF74FFF0A4B5B78182B0BD9084A1478013B5370E30003F1804303F5F0431B78137082
:4006400000E0FF24FFF740FF204610BD0C81FF1F10F0800F0CD111F4704F0BD1C00000F1804000F5F04001808270C37000207047012070470120704710F0800F08D1C0006D
:4006800000F1804000F5F0408180C280002070470120704710B500F0A9F800F0F1F8D0B900F030F90446072812D102E0012000F093F80A4B1B7813F0020FF7D0074B1B781F
:4006C00013F0020F04D0054B1B789B0800D1002400F0FCF800E00424204610BD2247004010B500F083F800F0CBF810BB012000F0A9F8072818D11048022100F089F8022841
:400700000AD102E0012000F067F80C4B1B7813F0020FF7D0002409E0084B1B7813F0020FE9D04FF0FF3401E04FF0FF3400F0CEF800E00424204610BD6081FF1F22470040A9
:4007400008B5FFF7A7FF034610B9FFF7C9FF0346184608BD08B5FFF7B3FE0F4A137843F0080313701032137843F008031370C8220A4B1A700A4A137843F01003137010329A
:40078000137843F010031370064B1B7813F0200FFAD0FFF799FE08BDA043004001470040AC43004000470040054A137843F001031370034B1B7813F0020FFAD0704700BF89
:4007C00002470040024A137803F0FE03137070470247004001BE704708B5034B1B7A03FB00F0FFF765FE08BD1481FF1F08B5FFF767FE064A137843F008031370103213788C
:4008000043F008031370FFF75FFE08BDA043004070B506460D4600240CE00120FFF7DCFF064B1B7813F0010FF7D0054B1B7833550134E4B2AC42F3D3204670BD2247004012
:40084000204700400C4B1B7813F0020F0FD00B4BB6221A70E1221A700E221A7002331B7813F0020F05D1054B187007207047042070470920704700BF2247004020470040C3
:4008800010B5FFF71DFE0F4B1B78A3B901220D4B1A700D4B1B6813F0010F0ED00A4A136823F00103136000BF00BF00BF0122054B5A60002402E0042400E00024FFF704FE5B
:4008C000204610BD4881FF1F0400084008B5FFF7F7FD0A4B00221A705B68012B0AD1084A136843F00103136000BF00BF00BF0022024B5A60FFF7E8FD08BD00BF4881FF1FFD
:4009000004000840074B1B7813F0020F08D0064BB6221A70E0221A700D221A700720704704207047224700402047004010B5022001214FF4804241F6FF7300F08FF9084C16
:4009400020700420012141F6FF72134600F0A6F96070044800F0C0F9002000F0C3F910BD5081FF1FA10A000070B52C4C2078FFF7E5FD6078FFF7E2FD294B1B78FF2B03D15A
:40098000FFF74CFE264B1870254D2A78104604210623FFF75DFE214E341DA4B2287845F6A2312246FFF768FE30782978FFF706FE6B78FF2B02D1FFF731FE6870184D6A7806
:4009C000104604210723FFF743FE68782146154A92B2FFF751FE114C60786978FFF7EEFD20780121FFF78EFD60780121FFF78AFDFFF766FD0C4A137843F020031370FFF73A
:400A000063FD0A4B1A7842F001021A701A7842F002021A700122064B1A6070BD5081FF1F2481FF1F6481FF1F976400407765004080E200E008B5074B9B6823B9FFF776FF9C
:400A40000122044B9A60FFF78FFF00F0C7F8024B1B7808BD5081FF1F6464004008B500F0CBF808BD044B1B7803F0FF020BB90028F8D01046704700BF64640040C0F10100F6
:400A8000034B33F81030034A1088181A00B270476481FF1F7081FF1F08B500F0B5F808BD704700BF08B50A280FD00C2802D0082806D102E04FF4805209E04FF4807206E080
:400AC0000020FFF787FE002201E04FF480620021094B198042F2107303FB02F303F6C413064A82FB0302DB17C3EBE223044A1360044B198008BD00BF6881FF1FAD8BDB6885
:400B00006C81FF1F7081FF1F10B5FFF7D9FC0446184A137843F0020313701032137843F00203137002F5AA521032137843F0030313700422104B1A70013B1A7842F04002C8
:400B40001A701A7802F0FC021A70C822053B1A700222A3F59753123B1A70084A137843F0080313700A20FFF737FE2046FFF7ACFC10BD00BFAB4300400E5900402F5B00408C
:400B800010B504460A280DD00C2802D0082804D101E0C42207E0442205E00020FFF71AFEC42200E08422034B1A702046FFF77AFF10BD00BF0A59004008B5064A137843F0D2
:400BC000060313700C20FFF7DBFF0022024B1A8008BD00BF095900406A81FF1F08B5054B1B7823B9FFF7E8FF0122024B1A70FFF78BFF08BD5C81FF1F024A137843F0010394
:400C00001370704708590040114B1B889BB233B10F4B198809B201EB8101490001E00D4B19680D4B1A88821A12B242F2107000FB02F0002A03DD01EBD1735B1003E001EB13
:400C4000D17252105342034493FBF1F000B270476881FF1F6C81FF1F6A81FF1FF0B583B086460F4616461D460B4C01232370002200920192184671463A46FFF7ABFC207829
:400C800031462A46FFF780FC20780221FFF76AFC207803B0F0BD00BF2681FF1FF0B583B086460F4616461D460A4C0023237000930193184671463A46FFF78CFC207831463B
:400CC0002A46FFF761FC20780221FFF74BFC207803B0F0BD2781FF1F014B1B681864704708ED00E04001C0B2014B1870704700BF00E400E008B5FFF723FDFFF72BFD08BD2D
:400D000008B5FFF7F7FF08BD38B50446FFF7D8FB0546FFF749FD04F1804000F500400478E4B2FFF74FFD2846FFF7CEFB204638BD044A137803F0FE0300F00100184310705F
:400D4000704700BF00510040044A137803F0F10300F00E0018431070704700BF005000400E4B70B51E460E4C0025E41AA410A54204D056F8253098470135F8E700F044F83C
:400D8000084B094C1E46E41AA4100025A54204D056F8253098470135F8E770BD140E0000140E0000140E00001C0E000010B5431E0A44914204D011F8014B03F8014FF8E7A7
:400DC00010BD03460244934202D003F8011BFAE77047000000000000105100406000C05100401000F0510040100000000140001000140140000800400140000A004C014088
:400E00000002005001402000F8B500BFF8BC08BC9E4670474D00000045010000F8B500BFF8BC08BC9E46704729000000400E00000881FF1F200000005000000000000000E0
:400E4000000000007F800000030000000000E02EC05D00001800000000366E01FFFFFFFF00000000000000000000000000000000000000000000000000000000000000008C
:400E80000000000000000000000000000000000000000000000000000000000000000000000000000000000000000000000000000000000000000000000000000000000032
:400EC00000000000000000000000000000000000000000000000000000000000000000000000000000000000000000000000000000000000000000000000000000000000F2
:400F000000000000000000000000000000000000000000000000000000000000000000000000000000000000000000000000000000000000000000000000000000000000B1
:400F40000000000000000000000000000000000000000000000000000000000000000000000000000000000000000000000000000000000000000000000000000000000071
:020000040003F7
:0200000480007A
:4000000002520040015B004002640040190001402A010140310201403903014049040140430501400F06014039070140010B01400C14014032150140271601403B170140FE
:40004000021B01400B40014009410140014201400143014002450140024601400348014003490140044C0140034D01400750014002510140008001802F84830F87010101BA
:40008000040107010C010D011601180119011C011D012001210125012E01310136015608580459045B045D905F01D804D904DF01004003200603084409200C840D240F285D
:4000C00010801201144015401608180223402A082BA02C802FA0304031203440384039083A023C403DC03E023F285B80618083808E10C085C2E7C4D9CAC3CC1CCEFBD60853
:40010000D808E240580459045F018101860887048A088C088D0C92019404950898019D0C9E02A008A303AA08B003B30CB404B501B608B702B908BE50BF04C003C604C9FF62
:40014000CA07CBFFCC40CD20CEF0CF05D008D401D804D90CDA04DB04DC09DD11DF01E040E1A8E240E32000640120060209A00A800B200E010FA8100412801440160819418A
:400180001A84201021202210230129012E092FA0300431083280344038CC3B013D803E023FA840105004524059605A045B02794087128B40934096209C409E02A180A54021
:4001C000A7B4A801C087C2FFC45ACAC1CC1ACEFBD002D60FDE08E2200010024005200620070309400A030C0C0D110E710F0E14DC150C162217131B0C1D111F06201022AC42
:400200002409254026D028142F0830E03140330F341F353039223A023B083F0140424101450C46E0470B481949FF4AFF4BFF4EF04F44500C5401580459045A045B0C5C11F8
:400240005D015F0166C06A406B028705890A8B0497089D039F0CA903AB04AD03AF04B70FBB80D804D904DC10DF010004012002400302060209080C400FA81008128013085A
:4002800016011720188019201B022040212823182680270128102A402F063128328036803708388439903C043F1040044140430148104B08500853105A407940841090047B
:4002C00092409480954097209A409C409E02A340A410A548A680A7B4A920AA40C08FC2F4C4CECA3ACC5ECE6ED00DD608DE08E602580459045F0186019E029F01B101B202AE
:40030000B401D602D73DD804D904DB0CDF010104020105040681072009800A040B400D040F281040118012101320144016021A081B04210123402B842F80324433203440B0
:400340003504390A3A803D803E823F285A105C025D01604069056AA06B01705071807940904095509C409E039F20A540A7B4C0B5C26BC49FCA85CC5ECEFBD604D801DE083E
:40038000E602130116022A01300132023701580459045F01D804D904DF010040010102800320048005050602081009800A240F481040125013101450184019051B08218099
:4003C00029012A402B042C402E042F08301031863501368038803D803F4891019224931098409A129D05A142A324A580A708C0BDC257C43ECAEDCC9FCE58E810EE045804D1
:4004000059045F01814082108380850889018D028E0291809204934096019708980899209B109C049F04A301A402A510A720AA08AB02AC01AD04B41FB7FFB820BE10BF40CB
:40044000D203D302D804D904DB04DF010046030805040601080209C20A080B100D800F28110112151440160218041A041B102002280229052A112BA42C402E042F0831801F
:4004800032143301350138E039073A063B103D803E023F0869506A108440860490A0910692289550961498029B019C409D049E13A304A540A7B0C0AFC2EFC49FCAEFCC8FF6
:4004C000CEDFE810EE041301168033203B023E8083018F20C430CC10CE60E080580866088A0897029808A808D640D880EE20970297022340C8028740934024089702C82071
:40050000AB01B404EE201F803402C601CC01AB80B402E80800030101080309010A0310011A010003100A00000100010000C0C4000001000000000000000000000000000018
:40054000000000000000000000000000000000000000000000000000000000000000000000000000000000000000000000000000000000000000000000000000000000007B
:40058000000000000000000000000000000000000000000000000000000000000000000000000000000000000000000000000000000000000000000000000000000000003B
:4005C00000000000000000000000000000000000000000000000000000000000000000000000000000000000000000000000000000000000000000000000000000000000FB
:4006000000000000000000000000000000000000000000000000000000000000000000000000000000000000000000000000000000000000000000000000000000000000BA
:0200000490006A
:0400000000004005B7
:0200000490105A
:04000000BC90ACAF55
:0200000490204A
:40000000092E09280922091C09160910090608FC08F208E808DE08D608CE08C608BF08B608AF08AA089F089B087A086E08620856084A083E08320826081A080E080207F535
:4000400007E907DD07D107C507B707A9079B078D077F07740768075C075007440738072C07200713070706FB06EF06E306D706CB06BF06B306A7069B068F0685067B0672BC
:400080000668065E0656064D0646063E0636062E0626061E0616060E060605FE05F605EE05E605E005DA05D405CE05C805C205BC05B605B005AAFFECFFEDFFEEFFEFFFF0D2
:4000C000FFF1FFF2FFF3FFF4FFF5FFF6FFF7FFF8FFF9FFFAFFFBFFFCFFFDFFFEFFFF0000000100020003000400050006000700080009000A000B000C000D000E000F0010FF
:40010000001100120013001400150016001700180019001A001B001C001D001E001F0020002100220023002400250026002700280029002A002B002C002D002E002F0030AF
:40014000003100320033003400350036003700380039003A003B003C003D003E003F0040004100420043004400450046FFFFFFFFFFFFFFFFFFFFFFFFFFFFFFFFFFFFFFFF76
:40018000FFFFFFFFFFFFFFFFFFFFFFFFFFFFFFFFFFFFFFFFFFFFFFFFFFFFFFFFFFFFFFFFFFFFFFFFFFFFFFFFFFFFFFFFFFFFFFFFFFFFFFFFFFFFFFFFFFFFFFFFFFFFFFFF7F
:4001C000FFFFFFFFFFFFFFFFFFFFFFFFFFFFFFFFFFFFFFFFFFFFFFFFFFFFFFFFFFFFFFFFFFFFFFFFFFFFFFFFFFFFFFFFFFFFFFFFFFFFFFFFFFFFFFFFFFFFFFFFFFFFFFFF3F
:40020000FFFFFFFFFFFFFFFFFFFFFFFFFFFFFFFFFFFFFFFFFFFFFFFFFFFFFFFFFFFFFFFFFFFFFFFFFFFFFFFFFFFFFFFFFFFFFFFFFFFFFFFFFFFFFFFFFFFFFFFFFFFFFFFFFE
:40024000FFFFFFFFFFFFFFFFFFFFFFFFFFFFFFFFFFFFFFFFFFFFFFFFFFFFFFFFFFFFFFFFFFFFFFFFFFFFFFFFFFFFFFFFFFFFFFFFFFFFFFFFFFFFFFFFFFFFFFFFFFFFFFFFBE
:40028000FFFFFFFFFFFFFFFFFFFFFFFFFFFFFFFFFFFFFFFFFFFFFFFFFFFFFFFFFFFFFFFFFFFFFFFFFFFFFFFFFFFFFFFFFFFFFFFFFFFFFFFFFFFFFFFFFFFFFFFFFFFFFFFF7E
:4002C000FFFFFFFFFFFFFFFFFFFFFFFFFFFFFFFFFFFFFFFFFFFFFFFFFFFFFFFFFFFFFFFFFFFFFFFFFFFFFFFFFFFFFFFFFFFFFFFFFFFFFFFFFFFFFFFFFFFFFFFFFFFFFFFF3E
:40030000FFFFFFFFFFFFFFFFFFFFFFFFFFFFFFFFFFFFFFFFFFFFFFFFFFFFFFFFFFFFFFFFFFFFFFFFFFFFFFFFFFFFFFFFFFFFFFFFFFFFFFFFFFFFFFFFFFFFFFFFFFFFFFFFFD
:40034000FFFFFFFFFFFFFFFFFFFFFFFFFFFFFFFFFFFFFFFFFFFFFFFFFFFFFFFFFFFFFFFFFFFFFFFFFFFFFFFFFFFFFFFFFFFFFFFFFFFFFFFFFFFFFFFFFFFFFFFFFFFFFFFFBD
:40038000FFFFFFFFFFFFFFFFFFFFFFFFFFFFFFFFFFFFFFFFFFFFFFFFFFFFFFFFFFFFFFFFFFFFFFFFFFFFFFFFFFFFFFFFFFFFFFFFFFFFFFFFFFFFFFFFFFFFFFFFFFFFFFFF7D
:4003C000FFFFFFFFFFFFFFFFFFFFFFFFFFFFFFFFFFFFFFFFFFFFFFFFFFFFFFFFFFFFFFFFFFFFFFFFFFFFFFFFFFFFFFFFFFFFFFFFFFFFFFFFFFFFFFFFFFFFFFFFFFFFFFFF3D
:40040000FFFFFFFFFFFFFFFFFFFFFFFFFFFFFFFFFFFFFFFFFFFFFFFFFFFFFFFFFFFFFFFFFFFFFFFFFFFFFFFFFFFFFFFFFFFFFFFFFFFFFFFFFFFFFFFFFFFFFFFFFFFFFFFFFC
:40044000FFFFFFFFFFFFFFFFFFFFFFFFFFFFFFFFFFFFFFFFFFFFFFFFFFFFFFFFFFFFFFFFFFFFFFFFFFFFFFFFFFFFFFFFFFFFFFFFFFFFFFFFFFFFFFFFFFFFFFFFFFFFFFFFBC
:40048000FFFFFFFFFFFFFFFFFFFFFFFFFFFFFFFFFFFFFFFFFFFFFFFFFFFFFFFFFFFFFFFFFFFFFFFFFFFFFFFFFFFFFFFFFFFFFFFFFFFFFFFFFFFFFFFFFFFFFFFFFFFFFFFF7C
:4004C000FFFFFFFFFFFFFFFFFFFFFFFFFFFFFFFFFFFFFFFFFFFFFFFFFFFFFFFFFFFFFFFFFFFFFFFFFFFFFFFFFFFFFFFFFFFFFFFFFFFFFFFFFFFFFFFFFFFFFFFFFFFFFFFF3C
:40050000FFFFFFFFFFFFFFFFFFFFFFFFFFFFFFFFFFFFFFFFFFFFFFFFFFFFFFFFFFFFFFFFFFFFFFFFFFFFFFFFFFFFFFFFFFFFFFFFFFFFFFFFFFFFFFFFFFFFFFFFFFFFFFFFFB
:40054000FFFFFFFFFFFFFFFFFFFFFFFFFFFFFFFFFFFFFFFFFFFFFFFFFFFFFFFFFFFFFFFFFFFFFFFFFFFFFFFFFFFFFFFFFFFFFFFFFFFFFFFFFFFFFFFFFFFFFFFFFFFFFFFFBB
:40058000FFFFFFFFFFFFFFFFFFFFFFFFFFFFFFFFFFFFFFFFFFFFFFFFFFFFFFFFFFFFFFFFFFFFFFFFFFFFFFFFFFFFFFFFFFFFFFFFFFFFFFFFFFFFFFFFFFFFFFFFFFFFFFFF7B
:4005C000FFFFFFFFFFFFFFFFFFFFFFFFFFFFFFFFFFFFFFFFFFFFFFFFFFFFFFFFFFFFFFFFFFFFFFFFFFFFFFFFFFFFFFFFFFFFFFFFFFFFFFFFFFFFFFFFFFFFFFFFFFFFFFFF3B
:40060000FFFFFFFFFFFFFFFFFFFFFFFFFFFFFFFFFFFFFFFFFFFFFFFFFFFFFFFFFFFFFFFFFFFFFFFFFFFFFFFFFFFFFFFFFFFFFFFFFFFFFFFFFFFFFFFFFFFFFFFFFFFFFFFFFA
:40064000FFFFFFFFFFFFFFFFFFFFFFFFFFFFFFFFFFFFFFFFFFFFFFFFFFFFFFFFFFFFFFFFFFFFFFFFFFFFFFFFFFFFFFFFFFFFFFFFFFFFFFFFFFFFFFFFFFFFFFFFFFFFFFFFBA
:40068000FFFFFFFFFFFFFFFFFFFFFFFFFFFFFFFFFFFFFFFFFFFFFFFFFFFFFFFFFFFFFFFFFFFFFFFFFFFFFFFFFFFFFFFFFFFFFFFFFFFFFFFFFFFFFFFFFFFFFFFFFFFFFFFF7A
:4006C000FFFFFFFFFFFFFFFFFFFFFFFFFFFFFFFFFFFFFFFFFFFFFFFFFFFFFFFFFFFFFFFFFFFFFFFFFFFFFFFFFFFFFFFFFFFFFFFFFFFFFFFFFFFFFFFFFFFFFFFFFFFFFFFF3A
:40070000FFFFFFFFFFFFFFFFFFFFFFFFFFFFFFFFFFFFFFFFFFFFFFFFFFFFFFFFFFFFFFFFFFFFFFFFFFFFFFFFFFFFFFFFFFFFFFFFFFFFFFFFFFFFFFFFFFFFFFFFFFFFFFFFF9
:40074000FFFFFFFFFFFFFFFFFFFFFFFFFFFFFFFFFFFFFFFFFFFFFFFFFFFFFFFFFFFFFFFFFFFFFFFFFFFFFFFFFFFFFFFFFFFFFFFFFFFFFFFFFFFFFFFFFFFFFFFFFFFFFFFFB9
:40078000FFFFFFFFFFFFFFFFFFFFFFFFFFFFFFFFFFFFFFFFFFFFFFFFFFFFFFFFFFFFFFFFFFFFFFFFFFFFFFFFFFFFFFFFFFFFFFFFFFFFFFFFFFFFFFFFFFFFFFFFFFFFFFFF79
:4007C000FFFFFFFFFFFFFFFFFFFFFFFFFFFFFFFFFFFFFFFFFFFFFFFFFFFFFFFFFFFFFFFFFFFFFFFFFFFFFFFFFFFFFFFFFFFFFFFFFFFFFFFFFFFFFFFFFFFFFFFFFFFFFFFF39
:0200000490303A
:020000009F4916
:0200000490402A
:4000000000000000000000000000000000000000000000000000000000000000000000000000000000000000000000000000000000000000000000000000000000000000C0
:400040000000000000000000000000000000000000000000000000000000000000000000000000000000000000000000000000000000000000000000000000000000000080
:400080000000000000000000000000000000000000000000000000000000000000000000000000000000000000000000000000000000000000000000000000000000000040
:4000C0000000000000000000000000000000000000000000000000000000000000000000000000000000000000000000000000000000000000000000000000000000000000
:0200000490501A
:0C00000000012E16106900012E1CAFB28A
:00000001FF