:400000000080002011000000C5030000C503000080B500AF024A034B1B68136000F0FEF9BC760040FA46004008000223000008760800032300001076080004230000287606
:4000400008000523000030760500062300002070050007230000307005000823000060700500FE230000707060000A22000010511000FE220000F051FF0F0C22000000007D
:4000800001000D220000FF0F80010E220000001400040F22000000160004102200000040800011220000004580001222000000478000132200000049800014220000004C89
:4000C0001000FE220000005006001623000060522000FE2300007065800018230000001A800019230000801A10001A230000105080001B230000004D80001C230000804D0A
:4001000080001D230000804C80001E230000804780001F23000000468000202300008046800021230000804580002223000000448000232300008044800024230000001B1C
:40014000800025230000801B8000262300008015800027230000804980002823000000488000FE23000080480100000001000000010000000048014001000000004800409A
:400180000100000000200140010000000020004010B5054C237833B9044B13B10448AFF300800123237010BDC881FF1F0000000010620000084B10B51BB108480849AFF3DA
:4001C00000800848036803B910BD074B002BFBD0BDE81040184700BF0000000010620000CC81FF1F0881FF1F0000000090B58BB000AF3B4600221A60043300221A60043306
:4002000000221A60043300221A60043362B600F0CDFF00F047FE00F0C3FD00F063FD01F027FA002000F04EF83862012000F04AF8F861386A03F094FD0446F86903F090FD10
:4002400003462046194603F093FE03461846194903F0DAFD0346184603F026FF0346BB61B86900F075FC03467B617B69124A82FB03125211DB17D31A3B613B696FF0630236
:4002800002FB03F27B6913447B627B6A002B02DA7B6A5B427B623B46184608493A697B6A04F0D2FB3B46184601F03CFA044801F039FAB6E700401C461F85EB511862000061
:4002C0002C62000080B584B000AF0346FB71FB79184600F003FE00F081FF002000F09EFF00F0C4FFF86000F059F8B860FA68BB68D31AFB60FB79F868194600F007F8F86018
:40030000FB6818461037BD4680BD00BF80B485B000AF78600B46FB707B681B027B60FB781D4A52F8233003F548527B689A4208DBFB78194A52F82330A3F548527B689A4220
:4003400005DDFB7814497A6841F823200EE0FB78FA78114951F82210FA780F4850F822207868821A0A440C4941F82320FB780A4A52F823301A12FB78074951F8233003F0F5
:400380008003DB111344FB60FB6818461437BD465DF8047B704700BFE481FF1F80B582B000AF022000F09AFD00F018FF002000F035FF00F05BFF78607B6818460837BD4691
:4003C00080BD00BF80B400AFFEE700BF80B584B000AF78600F4B1A687B6813441A460E4BD31A802B09DC0B4B1B68FB60094B1A687B681344074A136007E003F07BFE02469B
:400400000C2313604FF0FF33FB60FB6818461037BD4680BD0C81FF1F2082FF1F80B586B000AF224B7B61224B3B61204B7B6135E03B691B68FB603B695B68BB603B699B6828
:400440003B6000237B600CE0FB681A68BB681A60BB680433BB60FB680433FB607B6804337B607A683B689A42EED13B69DB683B6000237B6008E0BB6800221A60BB68043375
:40048000BB607B6804337B607A683B689A42F2D13B6910333B617B69013B7B617B69002BC6D103F02DFEFFF7A1FEFEE701000000E464000080B582B000AF174B174A1A60AF
:4004C000174A174B1B6843F40073136000237B600FE07B68032B04D8124A7B6852F8233000E0114B11497A6841F822307B6801337B607B682F2BECD90D4B1B78DAB20D4B1D
:400500001A700D4B094A1A6000F0AEFA0B4B00221A600837BD4680BD0CED00E00004FA0514ED00E000000000C50300000080FF1FBC7600400481FF1F08ED00E00081FF1F57
:4005400080B584B000AFF860B9607A60F868B9687A6803F0FBFD1037BD4680BD80B483B000AF0346FB71FEE780B483B000AF434B00221A60424B10221A70424B01221A70D0
:40058000414B00221A70414B4FF4A0721A80404B01221A703F4B03221A703F4B3F4A92B21A803F4B47F608021A803E4B00221A803D4B4FF480421A803C4B09221A703C4B8C
:4005C0000B221A703B4B15221A703B4B17221A70BFF35F8F394B01221A70BFF35F8F00BF2A4B1B889BB2002BFAD100237B600DE07B68DA00324B13441946324A7B6852F8A5
:4006000023309BB20B807B6801337B607B68272BEED9BFF35F8F294B01221A70BFF35F8F00BF294B1B78DBB203F00103002BF8D100BF264B1B78DBB203F00103002BF8D1C7
:4006400000BF234B1B78DBB203F00103002BF8D100BF204B1B78DBB203F00103002BF8D100BF1D4B1B78DBB203F00103002BF8D10C37BD465DF8047B704700BFF081FF1FBC
:4006800000760040107000401970004000780040027800400378004004780040280000000678004004760040067600402970004039700040697000407970004014700040EE
:4006C0000C78004070620000187000402870004038700040687000407870004080B582B000AF3E4B00221A803D4B50221A703D4B19221A803C4B18221A703C483C490422E6
:40070000FFF71EFF3B4B02221A704FF0402308221A70394B03221A70384B394A1278D2B21A70384B08221A80374B41F251221A800023FB7019237B6013E0FB785B00DAB250
:40074000324B1B78DBB203F00103DBB21343DBB203F00303FB70782001F0EAF97B68013B7B607B68002B02D0FB78032BE5D17B68002B02D10320FFF7F1FE254B4FF48072E6
:400780001A80234B07221A70224B00221A70224B48221A701E4B00221A70204B02221A701F4B04221A701F4A1E4B1B78DBB243F00303DBB213701C4A1B4B1B78DBB243F062
:4007C0000103DBB21370194A184B1B78DBB263F07F03DBB213700837BD4680BD8040004082400040844000408640004000410040CC0800480043004000420040A1460040C6
:4008000008010049224200402042004025420040044000400640004008400040014000400B400040A2430040A1430040A043004080B483B000AF134B1B78FB71124AFB792C
:4008400003F00703DBB21370104AFB791B09DBB213700F4B02221A700E4B02221A700E4B10221A700D4B04221A700D4B4FF483721A800C4B44221A700C37BD465DF8047BB2
:40088000704700BFCF0100496E5800406F5800400D510040825A0040005B0040405B0040445B00407658004080B483B000AF0346FB71FB79022B24D8FA79FB791344FB716D
:4008C000FB79124A52F82330FA79104951F822201178FA790E48825C0A43D2B21A70FB790133FB71FB79094A52F82330FA79074951F822201178FA790548825C0A43D2B2EB
:400900001A700C37BD465DF8047B7047306200004862000080B483B000AF0346FB71FB79022B28D8FA79FB791344FB71FB79144A52F82330FA79124951F822201178FA7946
:400940001048825CD243D2B20A40D2B21A70FB790133FB71FB790A4A52F82330FA79084951F822201178FA790648825CD243D2B20A40D2B21A700C37BD465DF8047B70479E
:40098000306200004862000080B483B000AF0346FB71FB79022B24D8FA79FB791344FB71FB79124A52F82330FA79104951F822201178FA790E48825C0A43D2B21A70FB7926
:4009C0000133FB71FB79094A52F82330FA79074951F822201178FA790548825C0A43D2B21A700C37BD465DF8047B7047506200006862000080B483B000AF0346FB71FB7997
:400A0000022B28D8FA79FB791344FB71FB79144A52F82330FA79124951F822201178FA791048825CD243D2B20A40D2B21A70FB790133FB71FB790A4A52F82330FA790849B7
:400A400051F822201178FA790648825CD243D2B20A40D2B21A700C37BD465DF8047B7047506200006862000080B500AF72B6294B61221A70FFF732FE264B81221A70264AC4
:400A8000254B1B78DBB243F00403DBB21370FFF76BFD224B0A221A70214A214B1B78DBB243F00203DBB213701E4A1E4B1B78DBB243F00203DBB213701B4A1B4B1B78DBB278
:400AC00043F04003DBB21370184A184B1B78DBB243F01003DBB21370154816490822FFF72FFD154815490A22FFF72AFD144A144B1B78DBB243F00803DBB21370114B01227F
:400B00001A70FFF795FE104807490E22FFF718FD80BD00BF00480040E8460040835800400350014013500140A0430040C243004002510040B8080048C0510040C008004816
:400B40002243004004000840B043004000000000B0B586B000AF7860786802F0E7FC02460B461046194601F05BF802460B461046194602F0EBFF03467B61786902F0F8FCD2
:400B800002460B461046194635A3D3E9002302F043FD02460B461046194633A3D3E9002302F088FB02460B4614461D46786902F0DFFC02460B46104619464FF00002304B78
:400BC00001F0AEF802460B461046194628A3D3E9002302F021FD02460B462046294602F069FB02460B461046194602F0AFFF03463B61386902F0BCFC02460B464FF000009C
:400C0000204902F033FE02460B46104619461AA3D3E9002302F04CFB02460B46104619464FF00002184B02F0F7FC02460B46104619464FF00002154B02F03CFB02460B467D
:400C40001046194602F082FF0346184603F02CFA0346FB81FB891BB218461837BD46B0BD72A6A4664ACD303F891BB806E4394C3F96800C2C558E863E6666666666127140F1
:400C8000000008400000F03F000059400000E03F80B500AF032000F035F880BD80B400AF0D4A0D4B1B78DBB243F06003DBB213700A4A0A4B1B78DBB243F00403DBB2137039
:400CC000074A074B1B78DBB243F00403DBB21370BD465DF8047B704777580040A4430040B443004080B500AF054B1B78002B04D1034B01221A70FFF7CBFFFFF7CFFF80BD69
:400D0000F881FF1F80B483B000AF0346FB710C4A0B4B1B78DBB223F00303DBB213700849074B1B78DAB2FB7903F00303DBB21343DBB20B700C37BD465DF8047B704700BFB2
:400D40005C58004080B500AF064B00221A70064B00221A70042000F057F8002000F034F880BD00BF205800402158004080B400AF094A094B1B78DBB243F00103DBB21370A4
:400D8000064A064B1B78DBB243F00103DBB21370BD465DF8047B7047A8430040B843004080B500AF074B1B78002B04D1FFF7CAFF044B01221A70FFF7D9FF642000F044F835
:400DC00080BD00BFF981FF1F80B483B000AF0346FB710C4A0B4B1B78DBB223F00203DBB213700849074B1B78DAB2FB7903F00203DBB21343DBB20B700C37BD465DF8047B6D
:400E0000704700BF2058004080B582B000AF0346FB710C4A0B4B1B78DBB223F00C03DBB213700849074B1B78DAB2FB7903F00C03DBB21343DBB20B7000F016F80837BD4658
:400E400080BD00BF2058004080B483B000AF0346FB71044AFB7913700C37BD465DF8047B704700BF805B004080B483B000AF0B4B1B78DBB203F00C039B08DBB20633FB71A0
:400E8000074AFB7903F1924303F590731B78DBB213700C37BD465DF8047B7047205800400846004080B582B000AF0023FB710AE0FB791846FFF72EFDFB791846FFF79AFD0E
:400EC000FB790133FB71FB79022BF1D9024BFF221A700837BD4680BD1081FF1F80B582B000AF0346FB710B4B1B78FF2B04D0094B1B78184600F010F8FB791846FFF7D4FCC6
:400F0000FB791846FFF740FD024AFB7913700837BD4680BD1081FF1F80B582B000AF0346FB71FB791846FFF7F5FCFB791846FFF761FD0837BD4680BD80B582B002AF324B7D
:400F400001221A70314B00221A70102000F0C6FC102000F0A9FD1D20072100F03FFE2C4B04221A702B4B00221A702B4B00221A702A4A2A4B1B78DBB243F01803DBB2137090
:400F8000274B00221A70274B00221A70264B00221A70264B0A221A70254B00221A70254B00221A70244B5B221A70244B5E221A70234B00221A70234B14221A70012300938B
:400FC000052049F25B114FF40042142300F054FA1D4A0D4B1B78DBB2013B1C499B000B449B7813701A4A084B1B78DBB2013B174931F823301380044B1B78DBB2184600F0EC
:4010000089F9BD4680BD00BF1181FF1FFC81FF1F96580040975800409E580040075B004093580040885B0040895B00408058004081580040835800408858004089580040B0
:401040008D580040014E00400E4E00400082FF1F0C4E004080B582B000AF00F071FD0346FB71444B1B78BB71434A434B1B78DBB243F00103DBB213703F4A3F4B1B78DBB2BA
:4010800043F01003DBB213703C4A3C4B1B78DBB243F00103DBB21370384A384B1B78DBB243F01003DBB21370354A354B1B78DBB243F00203DBB21370324A324B1B78DBB26B
:4010C00043F00203DBB213702F4A2F4B1B78DBB243F00303DBB21370032000F045FD284A274B1B78DBB223F00203DBB21370254A244B1B78DBB223F00203DBB21370234A38
:40110000224B1B78DBB243F00603DBB21370204B7A221A701F4A1F4B1B78DBB243F00103DBB213701C4A1C4B1B78DBB243F00103DBB21370194A194B1B78DBB243F00103B9
:40114000DBB21370164A164B1B78DBB243F00103DBB21370134B4FF000521A60124B4FF000521A60FB79184600F0EEFC0837BD4680BD00BF1181FF1FAA430040BA43004062
:40118000F8460040F9460040915800407758004082580040A1430040B1430040A2430040B243004080E200E000E100E080B500AF084B1B78002B09D1074B1B78DBB2002BBF
:4011C00001D1FFF7B9FE034B01221A70FFF742FF80BD00BFFE81FF1FFF81FF1F80B400AF054A054B1B78DBB243F00103DBB21370BD465DF8047B7047004E004080B400AF1F
:40120000054A054B1B78DBB223F00103DBB21370BD465DF8047B7047004E004080B485B000AF0346FB710E4B1B78DBB2002B03D00C4B1B78FB7305E00B4B1B78DBB203F0C2
:401240000103FB73FB7B012B02D0FB79002BEAD0FB7B18461437BD465DF8047B704700BFFD81FF1FFC81FF1F014E004080B483B000AF224B1B78DBB203F00303FB70FB7883
:40128000012B0BD81E4B1B889BB27B607B681B041C4A128892B213437B6020E0FB78022B12D1174B1B889BB27B607B681B04154A1278D2B213437B60134B1B78DBB21B0289
:4012C0007A6813437B600AE00E4B1B889BB27B600B4B1B889BB21B047A6813437B600B4B1B78DBB2002B02D0094B00221A707B6818460C37BD465DF8047B7047144E00402E
:40130000124E0040104E0040114E0040FD81FF1FFC81FF1F80B582B000AF0346FB71384B00221A70FB79012B66D1364B7C221A70354B00221A70354B0A221A70344B7F229D
:401340001A70344B00221A70334B7F221A70334B00221A70324B00221A70324B00221A70314B01221A70314B50221A70304B13221A70304B2B221A702F4B00221A702F4BC6
:4013800044221A702E4B48221A702E4B02221A702D4B02221A702D4B12221A702C4B28221A702C4BEB221A70442000F01BF92A4B58221A70294B00221A70294B01221A70D2
:4013C000284B01221A70284B00221A70274B0A221A700B4B01221A70254B4FF47A321A600120012100F0BEF90720012100F0A0FA1D20204900F0CAFB0837BD4680BD00BF54
:40140000FD81FF1F004E0040024E0040034E0040044E0040054E0040064E0040084E0040094E00400A4E0040144E0040845800408558004086580040875800408A580040A9
:401440008B5800408C5800408E5800408F580040905800409158004094580040955800409A5800409B5800409C5800409D5800401482FF1F5D16000090B587B000AF0446C4
:40148000084611461A462346FB710346BB800B467B801346BB7197F82830002B00F08A8097F82830012B00F28580FB79013B092B4AD801A252F823F0E1140000491500008E
:4014C00049150000E11400004915000049150000FB14000015150000491500002F150000BB790F2B04D9364B1B78DBB2FB752EE0344B1B78DBB2FB7529E0BB790F2B04D935
:40150000314B1B78DBB2FB7521E0304B1B78DBB2FB751CE0BB790F2B04D92D4B1B78DBB2FB7514E02B4B1B78DBB2FB750FE0BB790F2B04D9284B1B78DBB2FB7507E0274BB4
:401540001B78DBB2FB7502E00023FB7500BFBA8897F917305B0113443B617B883A6902FB03F3FB60FB68DB0BBB82BB790D2B11D8BB8ABA79C2F10E021341BB8297F82830BD
:40158000013BBA790132D1B2154A9B0013440A469A7007E097F82830013B114A9B0013440F229A7097F82830013B0D49BA8A21F8232002E0002000F0CBFA1C37BD4690BD56
:4015C000180100491C010049190100491D0100491A0100491E0100491B0100491F0100490082FF1F80B584B000AF0346FB7100F0A7FA0346FB73164A154B1B78DBB243F0F7
:401600000303DBB21370134A124B1B78DBB243F00303DBB21370104AFB791370032000F0A3FA0B4A0A4B1B78DBB223F00303DBB21370084A074B1B78DBB223F00303DBB213
:401640001370FB7B184600F07FFA1037BD4680BDF8460040F94600409258004080B500AFFFF7CCFD014B01221A7080BDFC81FF1F80B500AF054B1B78002B04D100F008F8D1
:40168000024B01221A7000F019F880BD0482FF1F80B400AF064B06221A70064B47221A70054B00221A70BD465DF8047B704700BF2A6500403A6500408B65004080B582B096
:4016C00000AF00F03DFA0346FB71084A074B1B78DBB243F01003DBB2137000F00FFAFB79184600F031FA0837BD4680BD9B65004080B483B000AF0346FB7100BF074B1B7831
:40170000DBB203F00403002BF8D1054AFB7913700C37BD465DF8047B704700BF6B6500404B65004080B584B000AF78600023FB810B4B1B78002B10D009E0FB897A6813442F
:401740001B781846FFF7D4FFFB890133FB81FB897A6813441B78002BEFD11037BD4680BD0482FF1F80B584B000AF03460A46FB8013467B7100F0CCF80346FB7300F0A2F8AF
:401780000346BB81FA88BB899A4200F08780454B1B78DBB203F00103FB72FB7B002B20D1BB89002B02D0FB88002B1AD1BB89002B0BD13D4AFB8813803C4A3C4B1B78DBB276
:4017C00023F04003DBB2137068E0384A374B1B78DBB243F04003DBB21370334AFB8813805CE0FB7A002B33D0314B00221A70314B01221A70304B00221A70304A2F4B1B7820
:40180000DBB203F07F03DBB21370284B1B78DBB203F00803002B02D0FB88002B18D1284ABB891380224B07221A7000BF204B1B78DBB203F00103002BF8D11A4A194B1B7878
:40184000DBB223F00103DBB21370194B00221A70144B1B78DBB203F00103002B13D0184AFB881380124A7B79002B01D0032300E00123137000BF0E4B1B78DBB203F0010380
:40188000002BF8D10AE0084AFB8813800549054B1B78DAB2FB7A1343DBB20B701037BD4680BD00BFA2430040804000408240004001400040104000401440004008400040B8
:4018C0000240004080B400AF034B1B889BB21846BD465DF8047B70478040004080B483B000AF0346FB71094B084A1278D2B2D1B2FA7922F00702D2B20A43D2B2D2B21A7066
:401900000C37BD465DF8047B704700BF8240004080B400AF054B1B78DBB203F00703DBB21846BD465DF8047B704700BF8240004080B584B000AF03460A46FB8013467B711A
:4019400000F0CCF80346FB7300F0A2F80346BB81FA88BB899A4200F08780454B1B78DBB203F00103FB72FB7B002B20D1BB89002B02D0FB88002B1AD1BB89002B0BD13D4A02
:40198000FB8813803C4A3C4B1B78DBB223F04003DBB2137068E0384A374B1B78DBB243F04003DBB21370334AFB8813805CE0FB7A002B33D0314B00221A70314B01221A70C9
:4019C000304B00221A70304A2F4B1B78DBB203F07F03DBB21370284B1B78DBB203F00803002B02D0FB88002B18D1284ABB891380224B07221A7000BF204B1B78DBB203F05C
:401A00000103002BF8D11A4A194B1B78DBB223F00103DBB21370194B00221A70144B1B78DBB203F00103002B13D0184AFB881380124A7B79002B01D0032300E0012313709A
:401A400000BF0E4B1B78DBB203F00103002BF8D10AE0084AFB8813800549054B1B78DAB2FB7A1343DBB20B701037BD4680BD00BFA143004000410040024100400140004072
:401A80001440004010400040084000400240004080B400AF034B1B889BB21846BD465DF8047B70470041004080B483B000AF0346FB71094B084A1278D2B2D1B2FA7922F0E3
:401AC0000702D2B20A43D2B2D2B21A700C37BD465DF8047B704700BF0241004080B400AF054B1B78DBB203F00703DBB21846BD465DF8047B704700BF0241004080B400AF79
:401B0000094A094B1B78DBB243F00203DBB21370064A064B1B78DBB243F00203DBB21370BD465DF8047B7047A2430040B24300400230800803D000BF01380046FCD1704756
:401B4000EFF3108072B6704780F31088704700BF80B483B000AF0346FB7101BE0C37BD465DF8047B704700BF80B582B000AF0346FB80FB88044A127802FB03F31846FFF7FD
:401B8000D7FF0837BD4680BD1C81FF1F80B584B000AF03463960FB710F4B1B68FB60FB791F2B02D90020FFF7D3FFFB7903F01F0310339B00FA6813441B68BB60FB7903F0D1
:401BC0001F0310339B00FA6813443A681A60BB6818461037BD4680BD08ED00E080B582B000AF03460A46FB711346BB71BB79072B02D90020FFF7ACFFFB791F2B02D90020D8
:401C0000FFF7A6FFFB7903F01F0303F1604303F56443BA795201D2B21A700837BD4680BD2DE9F0438BB006460F4600F0F1F9DFF8E880044698F900300D4601330BD0304616
:401C4000394601F0EDF930B1304639460022002301F072FF20B1204629460BB0BDE8F0832A4B98F800400890CDE90267CDE9046701939CB9264D4FF06044304639460022A5
:401C80000023CDE9064501F02FFF002835D101230093684601F0F0F9A8B910E0DFF87C904FF000083046394600220023CDE9068901F01AFF98B90123022C0093E9D102F08E
:401CC00019FA21230360134801F0D8F9CDE90601089BABB9DDE906010BB0BDE8F08302239C42009304D0684601F0C6F90028EFD102F000FA22230360EAE702230093F2E703
:401D000002F0F8F9089B0360E4E700BF10630000FFFFEFC7146300002481FF1F0000F0FF2DE9F04F8BB01F4680468946164600F057FBDFF8D8A204469AF900300D460133D3
:401D400004D03046394601F06BF920B9204629460BB0BDE8F08F4046494601F061F9834660BB304639460022002301F0BDFE0028ECD09AF900309E4C01229E4900208DE85E
:401D800014005A1CCDF820B0CDE90289CDE90467CDE906010DD0022B0BD0684601F06CF9002800F09380089B1BB102F0A3F9089B0360DDE906010BB0BDE8F08F404649460D
:401DC0000022002301F090FEF8B1304639460022002301F089FE834600284ED084489AF900300121002200240025CDE90289CDE90467CDE90645019000910892002BCCD0B3
:401E00007C4B0022CDE90623D3E72046294601F001F9834600285ED0204629460022002301F062FE002891D04046494601F0F2F800288BD03046394601F0ECF8002885D093
:401E40009AF900306A480421002200240025022BCDE90289CDE90467CDE9064501900091089200F08880684601F006F9002800F08280089B002B9CD097E73046394601F0C3
:401E8000C9F800283FF462AF304639460022002301F034FE00283FF459AF55499AF800300122CDF820B0CDE90289CDE9046701910092002B3CD050490020022BCDE90601BD
:401EC00030D102F017F921230360D2E702F012F92123036067E74046494601F09BF800289AD03046394601F095F8002894D02046294601F095F800BB3D4A9AF800400123D8
:401F00000890CDE90289CDE90467019200937CB10020002102460B4601F0A8FC022CCDE90601CED0684601F0A7F80028A1D1C8E700220023CDE90623F4E72D499AF900309D
:401F40000322CDF820B0CDE90289CDE9046701910092ABB9294D4FF060444046494600220023CDE9064501F0C9FD50BB9AF90030022B7FF478AF02F0BDF82223036078E70F
:401F80001F4D00244046494600220023CDE9064501F0B4FD0028E9D000221A4B3046394601F03AFB04460D4601F06EF822462B4601F09AFD0028D9D10F4B0022CDE906238F
:401FC000D4E700220F4B3046394601F025FB04460D4601F059F822462B4601F085FD0028C4D1094B4FF06042CDE90623BEE700BF186300000000F03F0000F0FFFFFFEF4777
:402000000000F07F0000E03FFFFFEFC72481FF1F2DE9F04FB1F5801F85B006460F460B465ADA024621F00044224300F0F5800029C0F271810022DE4B01F0EEFA0B460F46A8
:40204000DC4906468B426FF0350249DCC3F3130505F5152404F6647404F4801E8EF07F5181F440111B15A3F2FF3341EA05079C1830460022D04B394604EB1E5401F018F973
:40208000AB1CC3F31303022B82468B464FF000022FDC002301F028FD002800F0C680002C00F04281204601F051FAADA3D3E9002306460F4601F0B0FAABA3D3E90023044681
:4020C0000D463046394601F0A7FA02460B462046294601F0EFF809E0B64900228B42B5DD3046394632463B4601F0E4F805B0BDE8F08F4FF0804301F0DDF802460B465046CC
:40210000594601F0B3FB06460F462046CDE9006701F01CFA3246CDE902013B463046394601F07AFA02460B468046894601F074FA8FA3D3E9002306460F4601F06DFA8EA362
:40214000D3E9002301F0B6F832463B4601F064FA8BA3D3E9002301F0ADF832463B4601F05BFA89A3D3E9002301F0A4F842464B4601F052FA86A3D3E90023804689463046B6
:40218000394601F049FA84A3D3E9002301F092F832463B4601F040FA81A3D3E9002301F089F832463B4601F037FA0B4602464946404601F07FF8A5F5C223C5F5D725A3F257
:4021C0007A4351351D43002D06460F4653DD00227A4B5046594601F01FFA52465B4601F01BFA80468946002C60D132463B4601F061F8DDE9002301F00FFA02460B464046A2
:40220000494601F055F802460B465046594601F04FF805B0BDE8F08F002200230020684901F024FB05B0BDE8F08F52465B465046594601F0F1F95CA3D3E9002306460F462B
:402240005046594601F0E8F902460B4600205B4901F02EF802460B463046394601F0DCF906460F46002C62D15046594632463B4601F01EF83AE7002C00F0A48038A3D3E962
:402280000023DDE902894046494601F0C5F932463B4604460D465046594601F009F8DDE9002301F0B9F906460F464CE02CA3D3E90023DDE9020101F0AFF932463B4604467D
:4022C0000D464046494600F0F5FFDDE9002301F0A3F925A3D3E9002306460F46DDE9020101F09AF902460B463046394600F0E2FF02460B464046494600F0DAFF52465B4678
:4023000000F0D6FF02460B462046294600F0D0FF05B0BDE8F08F02460B4600F0C9FF0022002301F0A3FAE1E600200021DEE6204601F00CF90AA3D3E900238046894601F074
:402340006BF904460D4608A3D3E900234046494601F062F902460B4630463946CCE700BF0000E0FE422EE63F763C7935EF39EA3D44523EDF12F1C23FDE03CB966446C73FA6
:40238000599322942449D23F935555555555E53F9FC678D0099AC33FAF788E1DC571CC3F04FA97999999D93F555555555555D53F00005043FFFFEF7F0000F03F0000E03F61
:4023C000000050C302460B465046594600F070FFDDE9002301F020F915E700BFAFF300802DE9F04F144623F00047024657EA04000E468FB01D469C46214634D06E4B26F025
:40240000004A9A459346B14626DC24D09F4223DC694B9F4200F08F80B9F1000FC0F28F804FF0000879BB644B9F4200F0A580634B9F4267D0BCF1804F00F0E283604B9C457C
:4024400021D1B9F1000F1EDB104631460FB0BDE8F04F00F015BD62B10AF1404000F5801050EA0B0007D10346544918460FB0BDE8F08F5745CCDD53480FB0BDE8F04F00F0BC
:40248000FDBD4FF0000810463146CDF808C0009200F0BCFD009ADDF808C0BBF1000F20D04FEAD97909F1FF3958EA09037AD0464B9F4240F38F8003F104739F4240F3108488
:4024C000424B9A4540F39283BCF1000F40F3928337A1D1E900010B46024601F09DF80346C3E7BAF1000F04D0344B29F0404E9E45D6D1BCF1000FC0F2B683B9F1000F08DBFE
:402500000346B2E7BCF1000FC0F2528413463146ABE70AF1404A0AF5801A58EA0A0340F05E8402460B4600F0C3FE0B46024601F09DF9034699E700293FF46EAF8CE7244B06
:402540009F422CDCA3F154739F427FF769AF40F213403B15834240F34B84C3F58663033321FA03F000FA03F38B427FF459AF00F00100C0F1020855E70AF1404303F58013FE
:4025800053EA0B0300F03983104B9A4540F36483BCF1000FC0F22E832346294665E74FF002083FE7104631463346BCE7AFF300809C7500883CE4377E0000F07F0000F03F07
:4025C0000000E03F146300000000E041FFFFEF3FFFFF3F43BAF5801F4FF0000205DACA4B01F01AF88A466FF034024FEA2A53C74ECAF3130AA3F2FF334AF07F571344B245C3
:402600000C9347F4401740F3D083C14B9A4540F307840026B4460C9BA7F5801701330C933946BC4B4FEACC0C6344D3E900AB52465B46CDF834C0CDE9060100F039FE52465A
:402640005B46CDE90801DDE9060100F033FE02460B460020B04901F009F902460B46DDE90801CDE90A2300F0D7FF02460B46CDE90223CDE904237B1043F0005303F50023D9
:4026800099190020002306460F460293DDE902231046194632463B46CDE9000100F0BCFF02460B46DDE9080100F002FE5246CDE908015B463046394600F0FAFD02460B462F
:4026C000DDE9060100F0F4FD02460B46DDE9000100F0A2FF02460B46DDE9080100F0E8FDDDE90A2300F098FFDDE90423CDE906011046194600F090FF02460B4606460F466C
:4027000000F08AFF6EA3D3E9002382468B463046394600F081FF6CA3D3E9002300F0CAFD32463B4600F078FF69A3D3E9002300F0C1FD32463B4600F06FFF67A3D3E9002354
:4027400000F0B8FD32463B4600F066FF64A3D3E9002300F0AFFD32463B4600F05DFF62A3D3E9002300F0A6FD02460B465046594600F052FFDDE9042306460F46DDE90001C4
:4027800000F098FDDDE9062300F046FF32463B4600F090FDDDE9006782468B4632463B463046394600F038FF00225C4BCDE9080100F080FD52465B4600F07CFD02980F4699
:4027C0000646DDE9000132463B4600F025FF32463B46CDE90001DDE9060100F01DFF0022CDE906014D4B3046394600F061FDDDE9082300F05DFD02460B465046594600F07D
:4028000057FDDDE9042300F007FF02460B46DDE9060100F04FFD82468B46DDE9000152465B4600F047FD32A3D3E9002302980F46064600F0F1FE30A3D3E90023CDE90401B7
:402840003046394600F0E8FEDDE90023CDE906013046394600F02CFD02460B465046594600F026FD26A3D3E9002300F0D5FE02460B46DDE9060100F01DFDDDF834C0284BE1
:40288000CDF818C06344D3E9002300F013FDCDE900010C9800F05AFE06460F46DDE90401204BDDF818C09C44DDE90023DCE900AB00F000FD52465B4636E000BFAFF3008078
:4028C000EF4E454A287ECA3F65DBC9934A86CD3F01411DA96074D13F4D268F515555D53FFFAB6FDBB66DDB3F033333333333E33F000000E009C7EE3FF5015B14E02F3EBE46
:40290000FD033ADC09C7EE3F000040438E98030079B60B00406300000000F03F000008403063000020630000CDE906AB00F0C2FC32463B4600F0BEFC029832463B4682465B
:402940008B4600F0B5FCDDE9062300F0B1FCDDE9042300F0ADFC02460B46DDE9000100F0A7FCCDE9020108F1FF3858EA09030CBFD54BD64B0022CDE904230023CDE9004580
:402980000093DDE90067204632463B46294600F08FFC52465B4600F03FFEDDE90223804689462046294600F037FE02460B464046494600F07FFC04460D46524630463946EB
:4029C0005B46CDE9024500F027FE06460F4620463B462946324600F06DFCBD4B824699428946884640F3138101F13F4303F5E003034340F0E581A0A3D3E90023DDE9020137
:402A000000F058FC324604460D463B465046494600F04EFC02460B462046294601F08CF8002840F0CD814C462015A0F2FE304FF4801101414144C1F30A50A64CA0F2FF35EC
:402A4000C1F3130BC0F5826003302C414BF4801B21EA040300224BFA00FB3946304600F027FC06460F46DDE902018BEAE87B0BEBD87B32463B464FEA0B5A00F01BFC80A3AB
:402A8000D3E90023002420460D4600F0C5FD3246804689463B462046294600F009FC02460B46DDE9020100F003FC77A3D3E9002300F0B2FD76A3D3E9002306460F46204668
:402AC000294600F0A9FD02460B463046394600F0F1FB06460F4632463B464046494600F0E9FB42464B4604460D4600F0E1FB02460B463046394600F0DBFB22468046894611
:402B00002B462046294600F087FD63A3D3E9002306460F4600F080FD61A3D3E9002300F0C7FB32463B4600F077FD5FA3D3E9002300F0C0FB32463B4600F06EFD5CA3D3E95B
:402B4000002300F0B5FB32463B4600F065FD5AA3D3E9002300F0AEFB32463B4600F05CFD02460B462046294600F0A2FB06460F4632463B462046294600F04EFD0022CDE913
:402B800000014FF080433046394600F091FB02460B46DDE9000100F069FE424606460F464B462046294600F037FD42464B4600F081FB02460B463046394600F079FB224658
:402BC0002B4600F075FB02460B4600203F4900F06FFB8A44BAF5801F0246C0F227815346DDE9040100F018FD03463EE4BCF1000FFFF66EAC0023194637E40B46334934E48A
:402C000033461046314600F007FD03462DE4324B21F000449C4240F3FA80304B0B4403430CD132463B4600F043FB02460B46DDE9020100F06DFF00283FF4F6AE20A3D3E953
:402C40000023DDE9040100F0E7FC1DA3D3E9002300F0E2FC034608E4BCF1000FCADA234605F1004101E402460B460020174900F0FDFD42E4AFF30080FE822B654715973C82
:402C800000000000432EE63FEF39FAFE422EE63F396CA80C615C20BED0A4BE726937663EF16BD2C541BDBB3E2CDE25AF6A56113F93BDBE166CC1663F3E5555555555C53F34
:402CC00059F3F8C21F6EA5010000F0BF0000F03FFFFF8F40FFFF0F00FFCB904000346F3F634B9A4582DD634B9A453FF7EDAB0022604B00F0DDFA54A3D3E9002306460F4615
:402D000000F08AFC52A3D3E90023CDE900013046394600F081FC3246CDE902013B463046394600F079FC002282468B4630463946514B00F071FC02460B4647A1D1E900013F
:402D400000F0B6FA32463B4600F066FC02460B4600204A4900F0ACFA02460B465046594600F05AFC3EA3D3E9002300F055FC02460B46DDE9020100F09BFA06460F46DDE923
:402D8000000132463B4600F095FADDE90023002082468B4600F08CFA02460B463046394600F086FACDE90201DDE50026B44637E4334600202F4900F059FD0346FFF755BB28
:402DC00029A3D3E90023DDE9040100F025FC26A3D3E9002300F020FC0346FFF746BBB8F1010F03467FF441AB01F10041FFF73DBB00297FF446ABC3F58263033347FA03F042
:402E000000FA03F3BB4217D08846FFF710BB1B4B9C423FF709AEDDE90023924693462EE64FF480264FF0010CFFF7FABB5A4600F0BBF902460B46D3E600F00100C0F102082E
:402E4000FFF7F5BAAFF30080000000604715F73F44DF5DF80BAE543E555555555555D53FFE822B654715F73F9C7500883CE4377EFEFFEF3F0000F03F0000D03F0000E03F2C
:402E80002DE9F041604E0C46B6460E40764505460B4600F098800029024676DD5FEA215E00F08180AEF2FF3EC3F313031EF0010F43F480135ED100273C46D10F01EB43032A
:402EC0004FEA6E0E520016204FF4001165189D424FEAD2764FEA420202DC5B1B6C180F44013806EB43034FEA5101EFD1844620264FF000410AE0A34220D0D50F013E4FEA56
:402F0000510105EB43034FEA420220D09C420CEB0105F0DA002D05EB010C09DBA0461B1B954288BF03F1FF334446521B0844E4E7BCF1000FF2DB04F10108F0E7954217D857
:402F4000002D05EB010C48DB98460023ECE7134315D140087B1003F17F5303F50013FA0703EB0E57394648BF40F00040BDE8F0811C46C2E7D10F01EB430352009BE7411CA2
:402F800031D000F001031844E3E721F000460643ECD079BB8E46D30AAEF1150E5205002BF9D0DC0222D400215B00D80201F10101FAD5C1F10100C1F1200422FA04F42343B8
:402FC00086448A406EE702460B4600F025FB2A46234600F06FF9BDE8F081BCF1000FAADAA0460023A0E701373046B3E7202401200021E2E702460B4600F05AF902460B461C
:4030000000F034FCB2E700BF0000F07F21F00041704700BF41F0004101F58010C00F704710B431F0004408D0114BA1F580129A4208D804205DF8044B704718B902205DF85B
:40304000044B704701F1FF41094B01F5E0019942EFD9B4F5801F01D20320EBE7054B9C4201D00020E6E7B0FA80F04009E2E700BFFFFFDF7F0000F07F002070470020014957
:40308000704700BF0000F87FF0B5C1F30A5EAEF2FF35132D83B002460B460C464FEAD17607462EDC002D48DB3C49294101EA030010432BD049080B4053EA02070CD04FF4DD
:4030C0008023132D24EA010143FA05F444EA01040CBF4FF0004700273149234601EBC606D6E900453A462046294600F0E3F8CDE90001DDE9000122462B4600F0D9F803B072
:40310000F0BD332D06DDB5F5806F43D01046194603B0F0BDAEF2134E4FF0FF3121FA0EF10142F3D049080142D6D04FF0804320EA010143FA0EF70F43CEE721F00041014327
:40314000E4D0C3F3130141EA000CCCF1000141EA0C0C13495C0C4FEA1C3C0CF4002C640401EBC6014CEA0403D1E900452046294600F0A0F8CDE90001DDE9000122462B460D
:4031800000F096F8024621F0004141EAC67310461946BDE700F08EF8BAE700BFFFFF0F005063000000000000F8B5C1F30A5604460D460B46174616BB21F00043034332D02B
:4031C0000022314B00F028FA304A044697420D460B4637DB40F2FE72C1F30A56363E3E44964215DD24A1D1E9000122462B4600F053F821A3D3E9002300F00EFAF8BD40F240
:40320000FF72964224D040F2FE723E449642E9DC002E09DD23F0FF4323F4E00343EA065520462946F8BDF8BD16F1350F15DA4CF250339F42D6DC12A1D1E9000122462B4691
:4032400000F02AF80EA3D3E9002300F0E5F9F8BD02460B4600F02EF8F8BD23F0FF4323F4E003363643EA0655204629460022084B00F0D2F9F8BD00BF9C7500883CE4377E9B
:4032800059F3F8C21F6EA50100005043B03CFFFF0000903CAFF3008003F0004321F0004243EA0201704700BF81F0004102E000BF83F0004330B54FEA41044FEA430594EAD0
:4032C000050F08BF90EA020F1FBF54EA000C55EA020C7FEA645C7FEA655C00F0E2804FEA5454D4EB5555B8BF6D420CDD2C4480EA020281EA030382EA000083EA010180EA61
:40330000020281EA0303362D88BF30BD11F0004F4FEA01314FF4801C4CEA113102D0404261EB410113F0004F4FEA03334CEA133302D0524263EB430394EA050F00F0A780AD
:40334000A4F10104D5F1200E0DDB02FA0EFC22FA05F2801841F1000103FA0EF2801843FA05F359410EE0A5F120050EF1200E012A03FA0EFC28BF4CF0020C43FA05F3C01849
:4033800051EBE37101F0004507D54FF0000EDCF1000C7EEB00006EEB0101B1F5801F1BD3B1F5001F0CD349085FEA30004FEA3C0C04F101044FEA445212F5800F80F09A8076
:4033C000BCF1004F08BF5FEA500C50F1000041EB045141EA050130BD5FEA4C0C404141EB010111F4801FA4F10104E9D191F0000F04BF01460020B1FA81F308BF2033A3F1B6
:403400000B03B3F120020CDA0C3208DD02F1140CC2F10C0201FA0CF021FA02F10CE002F11402D8BFC2F1200C01FA02F120FA0CFCDCBF41EA0C019040E41AA2BF01EB045118
:40344000294330BD6FEA04041F3C1CDA0C340EDC04F11404C4F1200220FA04F001FA02F340EA030021FA04F345EA030130BDC4F10C04C4F1200220FA02F001FA04F340EA12
:403480000300294630BD21FA04F0294630BD94F0000F83F4801306BF81F480110134013D4EE77FEA645C18BF7FEA655C29D094EA050F08BF90EA020F05D054EA000C04BF49
:4034C0001946104630BD91EA030F1EBF0021002030BD5FEA545C05D14000494128BF41F0004130BD14F580043CBF01F5801130BD01F0004545F0FE4141F470014FF0000028
:4035000030BD7FEA645C1ABF194610467FEA655C1CBF0B46024650EA013406BF52EA033591EA030F41F4002130BD00BF90F0000F04BF0021704730B54FF4806404F13204B1
:403540004FF000054FF0000150E700BF90F0000F04BF0021704730B54FF4806404F1320410F0004548BF40424FF000013EE700BF42004FEAE2014FEA31014FEA02701FBF2C
:4035800012F07F4393F07F4F81F06051704792F0000F14BF93F07F4F704730B54FF4607401F0004521F0004120E700BF50EA010208BF704730B54FF000050AE050EA01025C
:4035C00008BF704730B511F0004502D5404261EB41014FF4806404F132045FEA915C3FF4DCAE4FF003025FEADC0C18BF03325FEADC0C18BF033202EBDC02C2F1200300FA9D
:4036000003FC20FA02F001FA03FE40EA0E0021FA02F11444C1E600BF70B54FF0FF0C4CF4E06C1CEA11541DBF1CEA135594EA0C0F95EA0C0F00F0DEF82C4481EA030621EAE7
:403640004C5123EA4C5350EA013518BF52EA033541F4801143F4801338D0A0FB02CE4FF00005E1FB02E506F00042E0FB03E54FF00006E1FB03569CF0000F18BF4EF0010E08
:40368000A4F1FF04B6F5007F64F5407404D25FEA4E0E6D4146EB060642EAC62141EA55514FEAC52040EA5E504FEACE2EB4F1FD0C88BFBCF5E06F1ED8BEF1004F08BF5FEACD
:4036C000500E50F1000041EB045170BD06F0004646EA010140EA020081EA0301B4EB5C04C2BFD4EB0C0541EA045170BD41F480114FF0000E013C00F3AB8014F1360FDEBF22
:40370000002001F0004170BDC4F10004203C35DA0C341BDC04F11404C4F1200500FA05F320FA04F001FA05F240EA020001F0004221F0004110EBD37021FA04F642EB06019E
:403740005EEA430E08BF20EAD37070BDC4F10C04C4F1200500FA04F320FA05F001FA04F240EA020001F0004110EBD37041F100015EEA430E08BF20EAD37070BDC4F120055C
:4037800000FA05F24EEA020E20FA04F301FA05F243EA020321FA04F001F0004121FA04F220EA020000EBD3705EEA430E08BF20EAD37070BD94F0000F0FD101F0004640004B
:4037C00041EB010111F4801F08BF013CF7D041EA060195F0000F18BF704703F00046520043EB030313F4801F08BF013DF7D043EA0603704794EA0C0F0CEA135518BF95EA6D
:403800000C0F0CD050EA410618BF52EA4306D1D181EA030101F000414FF0000070BD50EA410606BF1046194652EA430619D094EA0C0F02D150EA013613D195EA0C0F05D16B
:4038400052EA03361CBF104619460AD181EA030101F0004141F0FE4141F470014FF0000070BD41F0FE4141F4780170BD70B54FF0FF0C4CF4E06C1CEA11541DBF1CEA13554A
:4038800094EA0C0F95EA0C0F00F0A7F8A4EB050481EA030E52EA03354FEA013100F088804FEA03334FF0805545EA131343EA12634FEA022245EA111545EA10654FEA00262C
:4038C0000EF000419D4208BF964244F1FD0404F5407402D25B084FEA3202B61A65EB03055B084FEA32024FF480104FF4002CB6EB020E75EB030E22BFB61A754640EA0C0086
:403900005B084FEA3202B6EB020E75EB030E22BFB61A754640EA5C005B084FEA3202B6EB020E75EB030E22BFB61A754640EA9C005B084FEA3202B6EB020E75EB030E22BFAC
:40394000B61A754640EADC0055EA060E18D04FEA051545EA16754FEA06164FEAC30343EA52734FEAC2025FEA1C1CC0D111F4801F0BD141EA00014FF000004FF0004CB6E706
:4039800011F4801F04BF01430020B4F1FD0C88BFBCF5E06F3FF6AFAEB5EB030C04BFB6EB020C5FEA500C50F1000041EB045170BD0EF0004E4EEA113114EB5C04C2BFD4EB9B
:4039C0000C0541EA045170BD41F480114FF0000E013C90E645EA060E8DE60CEA135594EA0C0F08BF95EA0C0F3FF43BAF94EA0C0F0AD150EA01347FF434AF95EA0C0F7FF4D2
:403A000025AF104619462CE795EA0C0F06D152EA03353FF4FDAE1046194622E750EA410618BF52EA43067FF4C5AE50EA41047FF40DAF52EA43057FF4EBAE12E74FF0FF3CF5
:403A400006E000BF4FF0010C02E000BF4FF0010C4DF804CD4FEA410C7FEA6C5C4FEA430C18BF7FEA6C5C1BD001B050EA410C0CBF52EA430C91EA030F02BF90EA020F002099
:403A8000704710F1000F91EA030F58BF994208BF90422CBFD8176FEAE37040F0010070474FEA410C7FEA6C5C02D150EA013C07D14FEA430C7FEA6C5CD6D152EA033CD3D062
:403AC0005DF8040B704700BF8446104662468C461946634600E000BF01B5FFF7B7FF002848BF10F1000F01BD4DF808EDFFF7F4FF0CBF012000205DF808FB00BF4DF808EDCC
:403B0000FFF7EAFF34BF012000205DF808FB00BF4DF808EDFFF7E0FF94BF012000205DF808FB00BF4DF808EDFFF7CEFF94BF012000205DF808FB00BF4DF808EDFFF7C4FF06
:403B400034BF012000205DF808FB00BF4FEA4102B2F1E04324BFB3F5001CDCF1FE5C0DD901F0004C4FEAC0024CEA5070B2F1004F40EB830008BF20F00100704711F0804FD7
:403B800021D113F13872BCBF01F00040704741F480114FEA5252C2F11802C2F1200C10FA0CF320FA02F018BF40F001004FEAC1234FEAD32303FA0CFC40EA0C0023FA02F3FD
:403BC0004FEA4303CCE77FEA625307D150EA01331EBF4FF0FE4040F44000704701F0004040F0FE4040F40000704700BF80F0004002E000BF81F0004142001FBF5FEA4103B1
:403C000092EA030F7FEA226C7FEA236C6AD04FEA1262D2EB1363C1BFD218414048404140B8BF5B42192B88BF704710F0004F40F4000020F07F4018BF404211F0004F41F473
:403C4000000121F07F4118BF494292EA030F3FD0A2F1010241FA03FC10EB0C00C3F1200301FA03F100F0004302D5494260EB4000B0F5000F13D3B0F1807F06D340084FEA22
:403C8000310102F10102FE2A51D2B1F1004F40EBC25008BF20F0010040EA03007047490040EB000010F4000FA2F10102EDD1B0FA80FCACF1080CB2EB0C0200FA0CF0AABFEB
:403CC00000EBC25052421843BCBFD0401843704792F0000F81F4000106BF80F400000132013BB5E74FEA41037FEA226C18BF7FEA236C21D092EA030F04D092F0000F08BF02
:403D00000846704790EA010F1CBF0020704712F07F4F04D1400028BF40F00040704712F100723CBF00F50000704700F0004343F0FE4040F4000070477FEA226216BF084694
:403D40007FEA23630146420206BF5FEA412390EA010F40F4800070474FF0000304E000BF10F0004348BF40425FEA000C08BF704743F0964301464FF000001CE050EA010213
:403D800008BF70474FF000030AE000BF50EA010208BF704711F0004302D5404261EB41015FEA010C02BF84460146002043F0B64308BFA3F18053A3F50003BCFA8CF2083A01
:403DC000A3EBC25310DB01FA02FC634400FA02FCC2F12002BCF1004F20FA02F243EB020008BF20F00100704702F1200201FA02FCC2F1200250EA4C0021FA02F243EB020057
:403E000008BF20EADC7070474FF0FF0C1CEAD0521EBF1CEAD15392EA0C0F93EA0C0F6FD01A4480EA010C400218BF5FEA41211ED04FF0006343EA501043EA5111A0FB0131B5
:403E40000CF00040B1F5000F3EBF490041EAD3715B0040EA010062F17F02FD2A1DD8B3F1004F40EBC25008BF20F00100704790F0000F0CF0004C08BF49024CEA502040EAAE
:403E800051207F3AC2BFD2F1FF0340EAC250704740F400004FF00003013A5DDC12F1190FDCBF00F000407047C2F10002410021FA02F1C2F1200200FA02FC5FEA310040F18C
:403EC000000053EA4C0308BF20EADC70704792F0000F00F0004C02BF400010F4000F013AF9D040EA0C0093F0000F01F0004C02BF490011F4000F013BF9D041EA0C018FE7A7
:403F00000CEAD15392EA0C0F18BF93EA0C0F0AD030F0004C18BF31F0004CD8D180EA010000F00040704790F0000F17BF90F0004F084691F0000F91F0004F14D092EA0C0F7F
:403F400001D142020FD193EA0C0F03D14B0218BF084608D180EA010000F0004040F0FE4040F40000704740F0FE4040F4400070474FF0FF0C1CEAD0521EBF1CEAD15392EA12
:403F80000C0F93EA0C0F69D0A2EB030280EA010C49024FEA402037D04FF0805343EA111143EA10130CF000408B4238BF5B0042F17D024FF4000C8B4224BF5B1A40EA0C00B9
:403FC000B3EB510F24BFA3EB510340EA5C00B3EB910F24BFA3EB910340EA9C00B3EBD10F24BFA3EBD10340EADC001B0118BF5FEA1C1CE0D1FD2A3FF650AF8B4240EBC2501C
:4040000008BF20F0010070470CF0004C4CEA50207F32C2BFD2F1FF0340EAC250704740F400004FF00003013A37E792F0000F00F0004C02BF400010F4000F013AF9D040EA3B
:404040000C0093F0000F01F0004C02BF490011F4000F013BF9D041EA0C0195E70CEAD15392EA0C0F08D142027FF47DAF93EA0C0F7FF470AF084676E793EA0C0F04D14B0292
:404080003FF44CAF08466EE730F0004C18BF31F0004CCAD130F000427FF45CAF31F000437FF43CAF5FE700BF4FEA4002B2F1FE4F0FD34FF09E03B3EB12620DD94FEA0023BC
:4040C00043F0004310F0004F23FA02F018BF404270474FF00000704712F1610F01D1420205D110F0004008BF6FF0004070474FF000007047014B1868704700BF8881FF1FCB
:404100000E4B70B51E460E4C0025E41AA410A54204D056F8253098470135F8E702F0D0F9084B094C1E46E41AA4100025A54204D056F8253098470135F8E770BDCC640000CD
:40414000CC640000CC640000D464000010B5431E0A44914204D011F8014B03F8014FF8E710BD03460244934202D003F8011BFAE770472DE9F0471E4688B0149F002BB8BF1D
:4041800006F10043129927F02007B6BF1E4600232D23462F1446109DDDF84CA00B7003D0452F03D1013501E0032300E002238DE8280406AB039307AB04932246334600F079
:4041C000FBFC472F804602D1119BDB0726D5462F08EB050911D198F80030302B0AD12046314600220023FFF77FFC18B9C5F10105CAF80050DAF800309944204631460022D2
:404200000023FFF771FC08B1CDF81C90079B4B4504D25A1C079230221A70F7E74046079B159AC8EB0303136008B0BDE8F087034673B50029B8BF494203F8022BB4BF2D22A0
:404240002B22092942701ADD0DF1070426460A2291FBF2F502FB1511092D01F1300104F8011D2946F3DC3031651E04F8011CB5421A460AD215F8012B03F8012BF7E71A4660
:404280003024214402F8024B5970101A02B070BD2DE9F04F91B08B4615461E461A9F044601F046FAD0F800A0504600F0F1FB00230E933B680990073323F0070303F10802A3
:4042C0009BF818803A60D3E90023CBE91223DBE91201FEF7A5FE0128DBE9120119D100220023FFF70BFC10B12D238BF84330A04BA04FB8F1470F88BF1F460323CBF81030E1
:40430000DBF8003023F00403CBF800304FF00009A1E0FEF785FEDBF8003048B9964A974FB8F1470F88BF17460322CBF81020E9E7DBF80420DBE91201571CCDE90A0101D103
:40434000062209E0B8F1670F02D0B8F1470F05D1002A40F0C7810122CBF80420DBF8042043F480638DE80C00CBF800300DF1330302930DAB03930EAB059300230693CDF84C
:404380001080DDE90A232046FFF7F3FE08F0DF03472B07460AD10D9BD81C03DBDBF80420934237DDA8F102085FFA88F8B8F1650F0D9915D8013942460BF150000D91FFF791
:4043C00036FF0E9A81468318012ACBF8103003DCDBF80020D10738D50133CBF8103034E0B8F1660F18D10029DBF8043009DDCBF810101BB9DBF80020D20721D501330B4435
:404400001CE01BB9DBF80020D00701D5023315E0012313E04FF067080D9B0E9A934207DBDBF80020CBF81030D10709D5013305E0002BD4BFC3F1020301231344CBF810305C
:404440000D9B4FF00009CBF858309DF8333013B12D238BF843300096204659460FAA2B4600F05CF9013002D14FF0FF3052E1DBF800305A0505D4204629463A46DBF81030AD
:4044800008E1B8F1650F40F2D080DBE9120100220023FFF729FB50B320462946384A0123B0470130E0D00E9B0D9A9A4209DBDBF80030D80705D4DBF800309F0700F11081F2
:4044C00007E1204629465246099BB0470130CBD000270E9B013B9F42EDDA204629460BF11A020123B0470130BED00137F1E70D9B002B29DC20462946214A0123B047013011
:40450000B2D00D9B2BB90E9B1BB9DBF80030D907D1D5204629465246099BB0470130A3D04FF000080D9B20465B429845294608DA0BF11A020123B047013095D008F10108D0
:40454000F0E73A460E9BA5E0DBF858200E9B9A42A8BF1A46002A914602DC4FF000081CE0204629463A464B46B0470130F5D17BE766630000626300006E6300006A6300009B
:4045800072630000204629460BF11A020123B04701303FF469AF08F10108DBF85830B9F1000FB4BF1A46C9EB03029045EADB07EB03080D9A0E9B9A4210DBDBF80030DA076E
:4045C0000CD40E9A1744C8EB07030D9FD21B9342A8BF1346002B1F4608DC0EE0204629465246099BB0470130EBD13DE7204629464246B04701303FF437AF4FF000080AE0A3
:40460000204629460BF11A020123B04701303FF42BAF08F101080D9A0E9B002FA3EB0203A8BFDB1B9845EBDB45E70E9A012A01DCDB0736D5204629463A460123B0470130B6
:404640003FF412AF204629465246099BB04701303FF40AAFDBE9120100220023FFF744FAE8B90E9B204629467A1C013B1DE0204629460BF11A020123B04701303FF4F4AED5
:4046800001370E9B013B9F42F1DB204629464B460BF15002B04701307FF40DAFE4E60027EFE7204629463A460123B0470130ECD1DAE6204629460BF119020123B047013008
:4046C0003FF4D2AE0137DBF80C300F9A9B1A9F42EFDBDBF80C000F9B9842B8BF184619E00027F0E743F480638DE80C00CBF800300DF1330302930DAB03930EAB059300236F
:404700000693CDF810802046DDE90A23FFF731FD074640E611B0BDE8F08F00BF2DE9F84391461F468A680B6906469342B8BF1346C9F8003091F843200C46DDF8208012B1AC
:404740000133C9F800302368990642BFD9F800300233C9F80030256815F006051CD094F843302268003318BF012392061FD5E118302081F843005A1C94F8451022440233FF
:4047800082F8431013E03046394604F119020123C047013007D00135E368D9F800209B1A9D42F0DBDBE74FF0FF30BDE8F8833046394604F14302C0470130F4D02268D9F85A
:4047C0000050E36802F00602042A08BF5D1B2269A3680CBF25EAE57500259342C4BF9B1AED184FF00009A9450ADA3046394604F11A020123C0470130D5D009F10109F2E7B8
:404800000020BDE8F88300002DE9FF410C461746227E98466E2A06460A9B01F1430100F0B08012D8632A23D00AD8002A00F0BD80582A40F0CC8084F84520DFF804E257E060
:40484000642A1ED0692A1CD0C1E0732A00F0B18009D86F2A2ED0702A40F0B980226842F0200222603FE0752A24D0782A3BD0AEE01A6804F14205111D1960136884F8423048
:40488000A9E020681A6810F0800F02D0101D186008E010F0400F02F10400186002D0B2F9003000E01368002B3EDA2D225B4284F8432039E020681A6810F0800F02D0101DF2
:4048C000186007E010F0400F02F10400186001D0138800E01368227EDFF864E16F2A0CBF08220A221CE07822DFF858E184F845202268186812F0800F00F104051D6003D1F1
:40490000550601D5038800E00368D00744BF42F0200222601BB9226822F0200222601022002084F8430002E0DFF814E10A226568002DA8BF2068A560A4BF20F004002060DC
:4049400003B965B10D46B3FBF2F002FB10331EF8033005F8013D03460028F4D100E00D46082A0BD12368DA0708D5236962689A42DEBF302305F8013C05F1FF35491B216192
:404980002EE025681A6815F0800F606903D0151D1D60136808E015F0400F02F104051D60136801D0188000E01860002323610D4616E01A68111D19601568002128466268A0
:4049C00000F0C2FE08B1401B6060636804E004F1420584F8422001232361002384F84330CDF800803046214603AA3B46FFF796FE013002D14FF0FF301FE0304639462A4600
:404A00002369C0470130F5D023689B0705D4E068039B9842B8BF18460FE00025E368039A9B1A9D42F3DA3046394604F119020123C0470130DED00135F0E704B0BDE8F0810F
:404A400074630000856300000EB400B54FF402719CB0ADF814106FF00041049107914FF6FF711DABADF81610084953F8042B02900690086802A9019301F054FA029B002280
:404A80001A701CB05DF804EB03B070478881FF1F034613F8012B002AFBD1181A013870472DE9F74F03690C698046A3427EDB013C01F114074FEA840E00F1140606EB0E03D0
:404AC00057F82450019356F824300135B3FBF5F507EB0E09BDB34FF0000A3846B446D34650F8043B9AB21B0C02FB05A26B4303EB124392B2C2EB0B0BBCF800204FEA134A9C
:404B00005A441FFA83FBDCF800304845CBEB134303EB224392B242EA03424FEA234B4CF8042BDDD956F80E306BB9019B043BB3421A4602D8C8F8104005E01268043B002A39
:404B4000F8D1013CF3E7404601F01DF800282BDB304601354FF0000E57F8042B036891B2C1EB0E0E120C99B27144C2EB134303EB214389B24FEA234E4F4541EA034340F819
:404B8000043BE9D956F8242006EB840362B9043BB3421A4602D8C8F8104005E01268043B002AF8D1013CF3E7284600E0002003B0BDE8F08F000000002DE9F04F456A95B01B
:404BC0008246219CCDE9022345B9102000F0B4FDCAF82400456085600560C560DAF82430196859B15A68012393404A608B60504600F0EDFDDAF8243000221A60039BA24AD1
:404C0000002BBDBF01232360039B0023BCBF23F000430393039FA8BF236027F000431B0D1B0593421DD142F20F73209A1360029B43B9964A964BC7F31300002814BF1846AA
:404C4000104600E09248229B002B00F06985C37813B100F1080300E0C31C229A136000F05FBDDDE902450022204629460023FEF73BFF804658B1209A01231360229B002B0B
:404C800000F03C8583481860013800F049BD13AB009312AB0193504622462B4600F0EEFFC7F30A5607905EB1C5F3130343F07F51204641F44011A6F2FF36CDF844801DE013
:404CC000139B129E1E446FF482639E42A1BF029A06F2124322FA03F06F4BB7BF6F4B9B1B029A9B1BAABF9F4002FA03F03843FEF71DFC0123A1F1F871013E11930022684BEB
:404D0000FEF7D6FA5AA3D3E90023FEF785FC5AA3D3E90023FEF7CEFA044630460D46FEF715FC57A3D3E90023FEF776FC02460B4620462946FEF7BEFA04460D4601F040FA87
:404D400029468346002220460023FEF7D7FE58B15846FEF7FBFB02460B4620462946FEF7C3FE08B90BF1FF3BBBF1160F0DD84D4B03EBCB03D3E90001DDE90223FEF7DCFE58
:404D800030B10BF1FF3B002300E00123109300E01090129B9E1B731E0A9345BF5B420993002300234CBF0A930993BBF1000F07DB0A9BCDF834B05B440A9300230B9308E067
:404DC000099BCBEB03030993CBF100030B9300230D931E9B092B29D8052BC4BF043B1E931E9BC8BF0025A3F10203D8BF0125032B21D8DFE803F0020E0410002300E001231F
:404E00000C931F9B002B20DC0123069305931A4619E0002300E001230C931F9B5B4406930133012B0593B8BF012311E0012500231E930C9501E001230C934FF0FF330693BF
:404E40000593002212231F9202E01F9B06930593DAF8244000226260042101F114029A4222D86268490001326260F6E7AFF3008061436F63A787D23FB3C8608B288AC63FCF
:404E8000FB799F501344D33F0000F07F966300009F630000736300000EFCFFFFEEFBFFFF0000F83FB06300005046616800F05AFCDAF8243020601B680893059B0E2B00F279
:404EC0004781002D00F04481DDE90223BBF1000FCDE90E2331DDB14A0BF00F034FEA2B1602EBC303F006D3E900450CD5DDE90E01AB4B06F00F06D3E90823FEF7B7FC0327D1
:404F0000CDE9020100E00227DFF8948276B1F10708D5D8E9002320462946FEF77DFB04460D460137761008F10808EFE7DDE9020122462B46FEF79AFC1BE0CBF10004DCB1F1
:404F4000DDE90E01954B04F00F0203EBC203D3E90023FEF761FB924D241102274CB1E20704D5D5E900230137FEF756FB64100835F4E7CDE9020100E00227109BDBB1DDE9EE
:404F80000245002220462946864BFEF7B7FD90B1059B83B1069B002B40F3D680294620460022814BFEF738FB0BF1FF36CDE902010137069D01E05E46059D3846DDE9028929
:404FC000FEF7C4FA42464B46FEF726FB774B0022FEF770F9CDE90201039BA3F150740394CDB9404649460022714BFEF761F9029A234680468946FEF79FFD002840F040823A
:4050000040464946029A04F10043FEF777FD002840F0308298E0614B0C996A1E03EBC203002947D0D3E9002300206249FEF71EFCDDE90223FEF73CF9CDE90201089C494616
:40504000404601F0BDF80746FEF780FA02460B4640464946FEF72CF9DDE90223303704F8017B80468946FEF749FD002840F0378342464B4600204B49FEF71AF9DDE9022314
:40508000FEF73CFD002840F0D080089BE31AAB425ADADDE902010022434BFEF7BDFA0022CDE90201404B40464946FEF7B5FA80468946C4E7D3E90001DDE90223FEF7ACFA92
:4050C000089BCDE902015C191D464946404601F077F80746FEF73AFA02460B4640464946FEF7E6F8303705F8017BA5428046894623D100222F4BDDE90201FEF7DBF802464B
:405100000B4640464946FEF717FD002840F08D80DDE9022300202749FEF7CAF802460B4640464946FEF7EAFC70B114F8013C621E302B40F0D4821446F7E700221A4BFEF761
:405140006BFA80468946C0E7DDE90E23CDE90223139B002BC0F28A80BBF10E0F00F386800E4B03EBCB03D3E900671F9B002B23DA059B002B20DC40F07C81304600220C4B68
:405180003946FEF749FADDE90223FEF7CBFC059D2E46002840F06F8174E100BFB0630000786400000000F03F0000244000001C40000014400000E03F089CDDE90289324661
:4051C0003B4640464946FEF751FB00F0F9FF0546FEF7BCF932463B46FEF71EFA0B46024649464046FEF764F805F1300E089B04F801EBC3EB040E059B9E452AD102460B4660
:40520000FEF758F832463B4680468946FEF794FC70B94046494632463B46FEF765FC002800F05E82EB0703D45AE2B34600E01C4614F8012C631E392A07D1089A9342F6D11E
:405240003023137013460BF1010B1A7801321A7046E20022A34BFEF7DFF90022002380468946FEF741FC0028A9D039E20C9A002A32D01E9A012A0ADC119A12B103F2334367
:4052800002E0129BC3F136030B9D099C18E0059B5D1E0B9BAB42B7BF0B9B5D1BEA1A0D9BBEBF0B959B180D93059BB8BF0025002BB9BF099B059A099C059BBCBF9C1A002314
:4052C000099A50461A4409920A9A01211A440A9200F01FFB064602E00B9D099C0C9E64B10A9B002B09DDA342A8BF2346099AE41AD21A09920A9AD31A0A930B9B002B20DDE9
:405300000C9BC3B1002D10DD31462A46504600F099FB0646079A3146504600F003FB07460799504600F053FA07970B9B5A1B08D05046079902E0504607990B9A00F082FB9E
:4053400007905046012100F0E4FA0D9B0546002B0ADD29461A46504600F074FB1E9B0546012B04DD00271BE01E9B012B13DC029B8BB9039BC3F313037BB9039B23F00047C9
:405380003F0D3F0557B1099B0127013309930A9B01330A9302E0002700E0029F0D9B43B12B6905EB8303186900F066FAC0F1200000E001200A9B184410F01F0008D0C0F1C7
:4053C0002003042B02DDC0F11C0002E008D018461C30099B0444034409930A9B03440A93099B002B05DD504607991A4600F078FB07900A9B002B05DD294650461A4600F0AB
:405400006FFB0546109BEBB10798294600F0BBFB002817DA0023504607990A2200F0EEF90C9B0BF1FF3B0790002B00F06B813146002350460A2200F0E1F9069B0646002B8E
:4054400033DC68E1059B002B26DC1E9B022B23DD059B0693069B73B929460522504600F0CDF905460798294600F08DFB002809DC01E000252E461F9B089C6FEA030B08E034
:40548000B3462E46089B089A5C1C312313700BF1010BB14600260FE10C9B23B9059B0693089F079CC9E0059B0693002C05DD31465046224600F014FB0646AFB17168504651
:4054C00000F050F90446326906F10C01023292000C30FEF73BFE50462146012200F000FB814602E000002440B146089F079C29462046FFF7D5FA3146099000F130082046C8
:4055000000F041FB4A4605902946504600F057FBC26803463AB919462046079300F033FB079B024600E0012250461946079200F04EF9079A92B91E9B83B9029B03F00103C9
:4055400063B9B8F1390F3B4607943ED0059B7C1C002BC4BF099B03F131083DE0059B002B04DA002AC446079408DC21E024D11E9B13BB029B03F00103F3B9F2E721460122A4
:4055800050460597CDF8088000F0AAFA2946079000F0F9FA0028DDF808C0059B03DC07D118F0010F04D0B8F1390F0ED008F1010C7C1C87F800C07FE0002A07F101020EDDCC
:4055C000B8F1390F3B46079403D1392201371A7057E0144608F1010887F800806CE0089B1746D31A02F8018C069A93423AD021460A220023504600F001F94E450446314652
:4056000050464FF00A024FF0000304D100F0F6F8064681466BE700F0F1F8494606460A225046002300F0EAF8814660E7214650460A22002300F0E2F8044620462946FFF78B
:405640002FFA089B00F1300807F8018B069AFB1A9342EBDB089BB146012AACBF9B1801331F46002621460122504600F039FA2946079000F088FA002803DC15D118F0010FF8
:4056800012D03C4614F8013C621E392B09D1089B9A4204D10BF1010B3123089A02E01446F0E70133137007E03C4614F8013C621E302B01D11446F8E75046294600F087F857
:4056C000B9F1000F0CD02EB14E4503D05046314600F07DF85046494600F079F800E0B3465046079900F073F80023209A23700BF101031360229B1BB11C6001E00A480FE064
:4057000008980DE0069B002B3FF7CAAE1E9B022B3FF7A0AEC4E61E9B022B3FF79BAEC4E615B0BDE8F08F00BF72630000AFF30080004870478C81FF1F024B0146186800F072
:4057400041BB00BF8881FF1F10B5C9B202449042034605D01C7801308C42F8D1184610BD002010BD70B5456A04460E463DB91020FFF7E2FF6062456085600560C560656A49
:40578000EB6843B1636ADB6853F8260078B1026843F8262017E020460421212200F0C0FA636AE860DB68002BECD1002070BD012101FA06F56A1D2046920000F0B1FA0028B7
:4057C000F3D04660856000230361C36070BD70B5446A06460D463CB91020FFF7ADFF7062446084600460C4603DB1736A6A68DB6853F82210296043F8225070BD2DE9F04162
:4058000006460C460F69984601F1140E0023DEF80000013385B2010C02FB0585514301EB1541ADB24FEA1148BB4205EB01414EF8041BECDBB8F1000F1BD0A3689F4212DBCA
:40584000616830460131FFF78DFF0546226904F10C01023292000C30FEF778FC21463046FFF7B5FF2C4604EB87030137C3F8148027612046BDE8F081030C1B0413B90004F7
:40588000102300E0002310F07F4F04BF0002083310F0704F04BF0001043310F0404F04BF80000233002803DB420003D5581C70471846704720207047036813F007020BD07A
:4058C000D90722D49A074BBF5B089B08036003604CBF01200220704799B209B91B0C102213F0FF0F04BF1B0A0832190704BF1B090432990704BF9B080232D90702D45B082D
:4059000005D00132036010467047002070472020704710B50C460121FFF724FF01224461026110BD2DE9F74F14460A69236988469A42BEBF0B46A0461C46D8F81070D4F846
:405940001090D8F80830D8F8041007EB09069E42C8BF0131FFF706FF00F114052B4605EB860C634503D2002243F8042BF9E704F1140208F1140102EB890301EB8707009381
:40598000009B01929A4257D2B2F800B0BBF1000F23D08946AE464FF0000859F8044BBEF800A0A3B20BFB03A34FEA144ADEF8004043444FEA14480BFB0A84F24604EB1344D0
:4059C0009BB243EA04434F454FEA14484AF8043B01D9D646E1E7CEF80480019B0432B3F802A0BAF1000F21D02C4689462B684FF00008B9F800E0B4F802B09BB20AFB0EBE42
:405A0000A346F04443EA08434BF8043B59F8043BB4F804E01B0C0AFB03E3B94503EB18434FEA134801D25C46E3E763600435A7E75CF8043D13B9013E002EF9DC066103B0BC
:405A4000BDE8F08F12F003032DE9F04106460F46154607D0214A013B52F823200023FFF7CDFE0746AD1035D0746A3CB91020FFF763FE7062446084600460C460D6F824800B
:405A8000D8F808407CB9304640F27121FFF741FF0023C8F808000446036004E06D1019D0206870B10446EB07F8D5394622463046FFF738FF804639463046FFF788FE474647
:405AC000ECE7304621462246FFF72CFF002320600360E7E73846BDE8F08100BFA06400002DE9F0470C460746164623694FEA621A0AEB03094968A36809F101059D4202DD3E
:405B000001315B00FAE73846FFF72CFE804600F114010023534504DA002241F823200133F8E72AEAEA73206901EB830316F01F0204F1140101EB800E14D0C2F1200C002049
:405B40000E689A469640304343F8040B51F8040B714520FA0CF0F3D3CAF8040048B109F1020506E0043B51F8042B714543F8042FF9D3013D3846C8F810502146FFF727FEA7
:405B80004046BDE8F08703690A6910B59B1A11D192001430143183180A4453F8044D52F8041D8C4202D007D3012010BD8342F4D8002010BD184610BD4FF0FF3010BD2DE99B
:405BC000F84307460C46084611461546FFF7DBFF061E08D138463146FFF7C4FD012303614661BDE8F883BCBF23462C4638466168BABF1D4601260026FFF7B4FD2B69C660DC
:405C0000266905F1140904F1140101EB860709EB830800F114054FF0000C51F8042B59F8044B93B29C44A3B2240CC3EB0C03C4EB124202EB23429BB24FEA224CC84543EA69
:405C400002428E4645F8042BE7D8BE450ED25EF8043B9AB262441B0C03EB224392B242EA03424FEA234C45F8042BEEE755F8043D0BB9013EFAE70661BDE8F8832DE9F3411C
:405C80001C4601211546089F099EFFF76BFDC4F31302C4F30A5480460CB142F480120192EDB102A840F8085DFFF706FE009B50B1019AC0F1200102FA01F10B43C240C8F8B4
:405CC0001430019201E0C8F81430019B002B14BF02250125C8F81830C8F8105009E001A8FFF7EAFD019B0125C8F81430C8F81050203034B1A4F2334404443C60C0F1350078
:405D000009E0A0F2324008EB850338601869FFF7B3FDC0EB45103060404602B0BDE8F08138B502FB01F4214600F04CF8054618B100212246FEF715FA284638BD30B50029D2
:405D40003CD051F8042C0B1F1D49002AB8BF9B180A680C4612B95A600B6030BD93420DD219685818904201BF5A5852181A60426823605A6030BD994203D80A465168002990
:405D8000F9D1146815199D420AD11B682344D0188842136012D10868034413604B680CE002D90C23036030BD1C681819884201BF08684968001918605960536030BD00BF97
:405DC0000C82FF1F70B5CC1C24F0030408340C2C38BF0C24002C064603DA0C233360002070BD8C42F9D3204A136810461946A1B10A68121B0ED40B2A03D90A608B188C50CF
:405E00001FE08B420BBF5A684A6802605A6018BF0B4616E00B464968E9E7144D2B681BB9304600F071F928603046214600F06CF9421C0346D1D0C51C25F0030585420AD112
:405E40001C6003F10B001A1D20F00700821A0AD05142995070BD3046E91A00F055F90130BBD02B46ECE770BD0C82FF1F0882FF1F2DE9F0478E688246B3420C4690469946FB
:405E800040D38A8912F4906F3AD02568096902236F1A656905EB450595FBF3F57B1C4B449D4238BF1D4653050FD52946FFF78AFF064698B121693A46FEF748F9A38923F4DF
:405EC000906343F08003A38113E02A4600F047F9064670B950462169FFF730FF0C23CAF80030A3894FF0FF3043F04003A381BDE8F08726613E4426604E466561ED1BA56021
:405F0000B14500D24E4632462068414600F00CF9A36800209B1BA36023681E442660BDE8F08700002DE9F0439DB003938B8906461C060D4690460CD50B6953B94021FFF787
:405F400041FF2860286110B90C233360CCE040236B610023099320238DF8293030238DF82A3043461C4613F8012B1AB9B4EB08090FD002E0252AF5D1F8E730462946424691
:405F80004B46FFF775FF013000F0A980099B4B4409932378002B00F0A28000234FF0FF3204930793059206938DF853301A9304F101084446DFF84891217848460522FFF7D0
:405FC000C3FB08F10108049B30B1C9EB00000122824013430493ECE7D80644BF20228DF85320190744BF2B228DF8532022782A2A02D0079923460EE0039A0134111D126854
:406000000391002ABBBF524243F0020307920792B8BF04930AE01C4622780133303A092A03D80A2000FB0121F5E7079123782E2B1AD163782A2B0AD1039B02341A1D1B6857
:406040000392002BB8BF4FF0FF3305930CE0611C00220C4623780131303B092B03D80A2000FB0232F5E70592DFF89880217840460322FFF769FB38B1049AC8EB00004023C6
:40608000834013430493013421781A48062204F101088DF82810FFF757FB88B1164B33B9039B073323F007030833039313E003AB0093304604A92A46104BFEF7E9F807E0AA
:4060C00003AB0093304604A92A460C4BFEF79CFB421C074603D0099B3B44099341E7AB895B0601D4099801E04FF0FF301DB0BDE8F08300BFB664000091420000715E0000CA
:40610000AC640000B264000038B5064C0023054608462360FAF75AF9431C02D1236803B12B6038BD1882FF1F814210B501EB020301D3421E0BE09842FBD28118D21AD342F5
:4061400004D013F8014D01F8014DF8E710BD994204D011F8014B02F8014FF8E710BDF8B5074615460E4621B91146BDE8F840FFF729BE1AB9FFF7E2FD2846F8BD00F015F8A9
:40618000A8420ED238462946FFF71CFE044650B131462A46FDF7DAFF38463146FFF7CEFD01E03046F8BD2046F8BD51F8040C0028BEBF091851F8043CC018043870470000C9
:4061C0004FEA410212F5001215D211D56FF47873B3EB625212D94FEAC12343F0004343EA505311F0004F23FA02F018BF404270474FF00000704750EA013005D111F0004068
:4062000008BF6FF0004070474FF00000704700BF000000000000000054656D703D256C642E2530326C642020202000000A0D00000D51004024430040945A0040244300408E
:40624000945A0040244300400100300030000000045B004024430040415B0040045B0040045B00402443004020000480200000008801000080010000780100007001000029
:4062800068010000680100006801000068010000F081FF1FF081FF1FF081FF1FF081FF1FF081FF1FF081FF1FF081FF1FF081FF1FF081FF1FF081FF1FF081FF1FF081FF1F86
:4062C000000000480801004808000048880000482801004838010048B801004838020048B802004838030048B803004838040048B804004838050048B80500483806004850
:40630000B806004838070048B8070048380800486C6F670000000000706F77000000000000000000000000000000004003B8E23F000000000000000006D0CF43EBFD4C3E33
:40634000000000000000F03F000000000000F83F000000000000304300000000000030C34300494E4600696E66004E414E006E616E0030003031323334353637383941421A
:4063800043444546003031323334353637383961626364656600496E66696E697479004E614E00504F534958002E000000000000000000000000F03F0000000000002440CE
:4063C00000000000000059400000000000408F40000000000088C34000000000006AF8400000000080842E4100000000D01263410000000084D797410000000065CDCD415C
:40640000000000205FA00242000000E876483742000000A2941A6D42000040E59C30A2420000901EC4BCD64200003426F56B0C430080E03779C3414300A0D885573476431F
:4064400000C84E676DC1AB43003D9160E458E143408CB5781DAF154450EFE2D6E41A4B4492D54D06CFF08044F64AE1C7022DB544B49DD9794378EA440080E03779C3414323
:40648000176E05B5B5B89346F5F93FE9034F384D321D30F94877825A3CBF737FDD4F157505000000190000007D000000232D302B2000686C4C00656667454647000000002A
:4064C000F8B500BFF8BC08BC9E467047B5010000B5040000F8B500BFF8BC08BC9E46704791010000F86400000881FF1FC00000005800000000000000000000002082FF1FC2
:40650000FF01000000366E01C05D0000180000000000E02E0100000000000000000000000000000000000000000000000000000000000000000000006063000000000000AF
:4065400000000000000000000000000000000000000000000000000000000000000000000000000000000000000000000000000000000000000000002881FF1FA963000048
:40658000B1640000B1640000B1640000B1640000B1640000B1640000B1640000B1640000B1640000FFFFFFFFFFFFFFFFFFFFFFFFFFFF00000000000000000000000000002C
:4065C000000000000000000000000000000000000000000000000000000000000000000000000000000000000000000000000000000000000000000000000000000000009B
:40660000000000000000000000000000000000000000000000000000000000000000000000000000000000000000000000000000000000000000000000000000000000005A
:40664000000000000000000000000000000000000000000000000000000000000000000000000000000000000000000000000000000000000000000000000000000000001A
:4066800000000000000000000000000000000000000000000000000000000000000000000000000000000000000000000000000000000000000000000000000000000000DA
:020000040003F7
:0200000480007A
:400000008080000000000000000000000980D0130000000C0C00710000000000DC2C2243000003001000AC081071400E140000000000200000710006E000000F1FC000301F
:4000400008A0020800000440010000000040000000FF07FF4020F0050800000000000000040404001101000140A84020000000000000000000000000000000000000000080
:40008000000000000000000013000400000015004000000013000C00030014000A0014000000000000000000000000002000000000000800000000001000400020000F00D9
:4000C0000000800000001500160400000000EC0B1CFFFFFF0000F0440C000000010000000400040401110001000000000000C00000004002000000000000000000000000DF
:4001000000000000000000000000000000000000000000000000000000000000000000000000000F00000000020000000000000000000000020000000000000000000000AC
:40014000000000000000000000000000000000000000000000000000000000000000000000000000000000000000000000000000000000000000000000000000000000007F
:40018000000000000000000000000000000000000000000000000000000000000000000000000000000000000000000000020000000000000000000000100000000000002D
:4001C00000020000000000000000000000000000000000000000000000000000001000000000000000000000000000000008000000000000000000000000000000000000E5
:4002000000000000000000000000000000000000000000000000040001000000000000000000000008000000000000000000000000000000000000000000000000000000B1
:400240000000000000000000000000000000000000000000000000000000000000180000000000000000000000000000000000000000000000000000000000000000000066
:40028000000000000000000000000000000000000000000000000000000000000000000000000000000000000000000000000000000000000000000000000000000000003E
:4002C00000000000000000000000000000000000000000000000000000000000001800000000000000000000000000000000000000000000000000000000000000000000E6
:4003000000000000000000000000000000000000000000000000000000000000000000000000000000000000000000000000000000000000000000000000000000000000BD
:400340000000000000000000000000000000000000000000000000000000000000000000000000000000000000000000000000000000000000000000000000000008000075
:40038000000000000000000000000000000000000000000000000000000000000000000000000000000000000000000000000000000000000000000000000000000000003D
:4003C00000000000000000000000000000000000000000000000000000000000001000000000000000000000000000000000000000000000000000000000000000000000ED
:4004000000000000000000000100000000000000000000000000000000000000000000000000000000000000000000000000000000000000000000000000000000000000BB
:40044000000000000000000000000000000000000000000000000000000000000010000000000000000000000000000000000000000000000000000000000000000000006C
:40048000000000000000000000000000000000000000000000000000000000000000000000000000000000000000000000000000000000000000000000000000000000003C
:4004C00000000000000000000000000000000000000000000000000000000000000000000000000000000000000000000000000000000000000000000000000000000000FC
:40050000000000000000000000000000000000000000000000000000000000000000000000000000000000000000000000000000000000000020000000000000000000009B
:40054000000000000000000000000000000000000000000000000000000000000000000000000000000000000000000000000000000000000000000000000000000000007B
:40058000000000000000000000000000000000000000000000000100000000000000000000000000000000000000000000000000000000000000000044000000085100009D
:4005C000008804000008008088080000002010004011140000C06800051800000000000080410000000000008008000000000000082000000000000001000000808000000B
:4006000080000000040000000C00000000145040000000000000481100000000000000000000000000000000000000000000000000000000000000000000100000004010CD
:400640000000100000100001000000000000000000000000000000000000000000000000000000000000000000000000000000000000000000000000F50037006E000000BF
:40068000000009000A000600980020000000F00000000000000000000100000000000000000000001000000000000000000000000000000000000000000000000000000068
:4006C00000000000000000000000000000000000000000000000000000000000000000000000000000000000000000000000000000000000000000000000000000000000FA
:4007000000000000000000000000000000000000000000000000000000000000000000000000000010000000000000000000000000000000000000000000000000000000A9
:400740000000000000000000000000000000000000000000000000000000000000000000000000000000000000000000001000000000000000000000000000000000000069
:400780000000000000000000000000000000000000000000000000000000000000000000000000000000000000000000000000000000000000000000000000000000000039
:4007C00000000000000000000000000000000000000000000000000000000000001000000000000000000000000000000000000000000000000000000000000000000000E9
:4008000000000000000000000000000000000000000000000000000000000000000000000000000000000000000000000000000000000000000000000000000000000000B8
:400840000000000000000000000000000000000000000000000000000000000000000000000000000000000000000000000000000000000000000000000000000000000078
:400880002000000000000000000000000000000000000000000000000000000000000000000000000000000000000000000000000000000000000000000000000000070011
:4008C00080000080800080000000000007001801000000000000000000000000000000000000000000000000000000000000000000000000000000000000000000000000D8
:4009000000000000000000000000000000000000000000000000000000000000000000000000000000000000000000000000000000000000000000000000000000000000B7
:400940000000000000000000000000000000000000000000000000000000000000000000000000000000000000000000000000000000000000000000000000000000000077
:400980000000000000000000000000000000000000000000000000000000000000000000000000000000000000000000000000000000000000000000000000000000000037
:4009C00000000000000000000000000000000000000000000000000000000000000000000000000000000000000000000000000000000000000000000000000000000000F7
:0200000490006A
:0400000000004004B8
:0200000490105A
:04000000BC90ACAF55
:0200000490303A
:020000009B5D06
:0200000490402A
:4000000000000000000000000000000000000000000000000000000000000000000000000000000000000000000000000000000000000000000000000000000000000000C0
:400040000000000000000000000000000000000000000000000000000000000000000000000000000000000000000000000000000000000000000000000000000000000080
:400080000000000000000000000000000000000000000000000000000000000000000000000000000000000000000000000000000000000000000000000000000000000040
:4000C0000000000000000000000000000000000000000000000000000000000000000000000000000000000000000000000000000000000000000000000000000000000000
:0200000490501A
:0C00000000012E16106900012E3DABC659
:00000001FF